:10000000C2C00000DFC00000DDC00000DBC0000097
:10001000D9C00000D7C00000D5C00000D3C0000088
:10002000D1C0000052C10000CDC00000CBC0000014
:100030001FC10000C7C00000C5C00000ECC0000028
:10004000C1C00000BFC000009AC10000BBC00000DA
:10005000B9C00000B7C00000B5C00000B3C00000C8
:10006000B1C00000AFC000005DC10000ABC0000027
:10007000A9C00000A7C00000BBC10000A3C00000D1
:10008000A1C000009FC000009DC0000000407A1089
:10009000F35A00A0724E18090010A5D4E80000E839
:1000A0007648170000E40B54020000CA9A3B000097
:1000B00000E1F505000080969800000040420F0026
:1000C0000000A08601000000102700000000E803E7
:1000D000000000006400000000000A0000000000B2
:1000E0000100000000002C76D888DC674F0823DF71
:1000F000C1DFAE59E1B1B796E5E3E453C63AE65144
:10010000997696E8E6C28426EB898C9B62ED407C6A
:100110006FFCEFBC9C9F40F2BAA56FA5F490055A06
:100120002AF75C936B6CF9676DC11BFCE0E40D472B
:10013000FEF520E6B500D0ED902E0300943577054E
:100140000080841E080000204E0A000000C80C3306
:100150003333330F986E12831141EF8D2114893B95
:10016000E65516CFFEE6DB18D1844B381BF77C1D15
:10017000901DA4BBE424203284725E228100C9F168
:1001800024ECA1E53D2711241FBECFEFD0E1DEBF57
:10019000CDBF13E0A0E0B1E0E4E9F9E600E00BBF79
:1001A00002C007900D92A63BB107D9F727E0A6EB56
:1001B000B3E001C01D92AA30B207E1F70E946015BA
:1001C0000C94C8341DCF0C94802C08950C94182DD9
:1001D0000895853360F4869586958695E82FF0E03E
:1001E000EE0FFF1FE25BFE4F80819181089580E05A
:1001F00090E00895853360F4869586958695E82F7E
:10020000F0E0EE0FFF1FE05CFE4F808191810895CA
:1002100080E090E008951F920F920FB60F92112484
:100220000BB60F922F933F934F935F936F937F93F0
:100230008F939F93AF93BF93EF93FF93E091E50666
:10024000F091E606309709F00995FF91EF91BF9183
:10025000AF919F918F917F916F915F914F913F915E
:100260002F910F900BBE0F900FBE0F901F901895FF
:100270001F920F920FB60F9211240BB60F922F936D
:100280003F934F935F936F937F938F939F93AF931E
:10029000BF93EF93FF93E091E306F091E40630976C
:1002A00009F00995FF91EF91BF91AF919F918F91C7
:1002B0007F916F915F914F913F912F910F900BBE66
:1002C0000F900FBE0F901F9018951F920F920FB6B0
:1002D0000F9211240BB60F922F933F934F935F937E
:1002E0006F937F938F939F93AF93BF93EF93FF93FE
:1002F000E091E106F091E206309709F00995FF914F
:10030000EF91BF91AF919F918F917F916F915F918D
:100310004F913F912F910F900BBE0F900FBE0F90FA
:100320001F9018951F920F920FB60F9211240BB6C3
:100330000F922F933F934F935F936F937F938F937E
:100340009F93AF93BF93EF93FF93E091DF06F091FC
:10035000E006309709F00995FF91EF91BF91AF91B9
:100360009F918F917F916F915F914F913F912F91CD
:100370000F900BBE0F900FBE0F901F9018951F92FD
:100380000F920FB60F9211240BB60F922F933F933B
:100390008F939F93EF93FF932091DC068091DB0670
:1003A00030E02F5F3F4F2F77307890E028173907E4
:1003B00091F09091DC068CB1E091D706F091D806CF
:1003C000E90FF11D80838091DC0690E001968F7724
:1003D00090788093DC06FF91EF919F918F913F91F0
:1003E0002F910F900BBE0F900FBE0F901F9018957E
:1003F0001F920F920FB60F9211240BB60F922F93EC
:100400003F938F939F93EF93FF932091D406809116
:10041000D30630E02F5F3F4F2F77307890E02817DA
:10042000390799F09091D40680919C00E091CF0615
:10043000F091D006E90FF11D80838091D40690E001
:1004400001968F7790788093D406FF91EF919F91DA
:100450008F913F912F910F900BBE0F900FBE0F9079
:100460001F901895CF93C62F8091EB069091EC06C4
:10047000892B09F063C085ED90E0A5DE9093EC0632
:100480008093EB068091E7069091E806009729F0AB
:100490009093EA068093E90651C081E090E093DEF4
:1004A000FC011082C230A1F018F4C13031F042C01A
:1004B000C330E9F0C43031F13DC023B72770D1F526
:1004C00012BE20E221BF23B7207F296023BF30C0A6
:1004D0002EB5277079F51DBC1CBC20E233E03BBD76
:1004E0002ABD1FBC2EB5207F29602EBD21C025B599
:1004F000277001F514BC20E223BD25B5207F2960BB
:1005000025BD16C020918A002770A1F410928900A1
:100510001092880020E233E0309387002093860019
:1005200010928B00EAE8F0E02081207F2960208390
:10053000FC01C0839093EA068093E906CF91089569
:10054000CF93C62F8091E9069091EA06009729F093
:100550009093E8068093E70651C081E090E033DE97
:10056000FC011082C230A1F018F4C13031F042C059
:10057000C330E9F0C43031F13DC023B72770D1F565
:1005800012BE20E221BF23B7207F296023BF30C0E5
:100590002EB5277079F51DBC1CBC20E233E03BBDB5
:1005A0002ABD1FBC2EB5207F29602EBD21C025B5D8
:1005B000277001F514BC20E223BD25B5207F2960FA
:1005C00025BD16C020918A002770A1F410928900E1
:1005D0001092880020E233E0309387002093860059
:1005E00010928B00EAE8F0E02081207F29602083D0
:1005F000FC01C0839093E8068093E706CF910895AD
:10060000E091C906F091CA06309709F49EC0908126
:10061000913009F046C02091DE069091DD06291345
:1006200005C05D9B28C08CB990E008954091DE061E
:100630002091DD0650E04F5F5F4F4F77507830E0FC
:1006400042175307C1F45D9BFECF9091DD06E09108
:10065000D906F091DA06E90FF11D90819CB99FB798
:10066000F8942091DD0630E02F5F3F4F2F773078F0
:100670002093DD069FBF9091DE06E091D906F091B0
:10068000DA06E90FF11D80839FB7F8942091DE060A
:1006900030E02F5F3F4F2F7730782093DE069FBFEB
:1006A0004FC0923009F04EC02091D6069091D506E9
:1006B000291308C090919B0095FF2DC080939C004A
:1006C00090E008954091D6062091D50650E04F5F06
:1006D0005F4F4F77507830E042175307E1F4EBE972
:1006E000F0E0908195FFFDCF9091D506E091D10685
:1006F000F091D206E90FF11D908190939C009FB775
:10070000F8942091D50630E02F5F3F4F2F77307857
:100710002093D5069FBF9091D606E091D106F09127
:10072000D206E90FF11D80839FB7F8942091D60679
:1007300030E02F5F3F4F2F7730782093D6069FBF52
:1007400090E0089580E090E008958FEF9FEF089586
:100750000F931F93CF93DF938091C9069091CA06A0
:10076000892B09F4ABC0ABE9B0E0CCE9D0E047E9B4
:1007700056E065E676E07BC05F9BFECF8CB190E0F3
:1007800032C08091DB06E091D706F091D806E80FE1
:10079000F11D80819FB7F8942091DB0630E02F5F38
:1007A0003F4F2F7730782093DB069FBF1BC08C9183
:1007B0008823ECF7888190E016C08091D306E09101
:1007C000CF06F091D006E80FF11D80819FB7F89415
:1007D0002091D30630E02F5F3F4F2F773078209362
:1007E000D3069FBF90E08A30910521F5E0913E014C
:1007F000F0913F018091610690916206E80FF91F28
:10080000108280913E0190913F0190936406809305
:1008100063068759964019F4962F872F02C0942FAC
:10082000852F90933E0180933F01109262061092B3
:1008300061061DC0209161063091620620333105AA
:1008400094F48D30910599F0E0913E01F0913F01D3
:1008500089010F5F1F4F1093620600936106E20F3C
:10086000F31F808304C01092620610926106E0912B
:10087000C906F091CA068081813079F49091DB0637
:100880008091DC069817D1F08091DB069091DB0611
:100890008091DC06981375CF6FCF823079F49091F8
:1008A000D3068091D406981749F08091D306909191
:1008B000D3068091D406981380CF79CFDF91CF9162
:1008C0001F910F9108958091EB049091EC04019693
:1008D0009093EC048093EB0420913C0130913D0116
:1008E0008217930759F4E091E904F091EA049081AA
:1008F0008091E8048095892380830895883C910540
:1009000059F4E091E904F091EA048091E8048083CD
:100910001092EC041092EB0408958091E2049091FF
:10092000E304A091E404B091E5040196A11DB11D7A
:10093000803823E3920721EEA20721E0B2074CF4AE
:100940008093E2049093E304A093E404B093E5045D
:1009500008C01092E2041092E3041092E404109292
:10096000E50481E08093DF040895CF93DF93E09165
:10097000E906F091EA068081823051F486B384FB67
:10098000222720F984FF02C0C39A0BC0C39809C074
:1009900081B182FB222720F982FF02C01F9A01C089
:1009A0001F98E091EB06F091EC06DF01A553BF4FD5
:1009B0008D919C911197019611969C938E938281B3
:1009C000843610F083E08183E091EB06F091EC0631
:1009D0008181813079F138F0823009F445C083306B
:1009E00009F466C06BC0211169C0DF01A553BF4F78
:1009F0008D919C9111978436910520F4FD0111820F
:100A000010825CC01282C28181E08C0F8283D0E0B0
:100A1000DF01A553BF4F8D919C911197CC0FDD1F26
:100A2000CE0FDF1F9C838B8311961C921E9281E058
:100A3000818344C0213009F041C0C28181E08C0F24
:100A40008283D0E0DF01A553BF4F8D919C91119718
:100A5000CC0FDD1FCE0FDF1F9C838B8311961C9262
:100A60001E9282E081832AC0211117C0C28181E0D9
:100A70008C0F8283D0E0DF01A553BF4F8D919C91F5
:100A80001197CC0FDD1FCE0FDF1F9C838B83119638
:100A90001C921E9281E0818311C0DF01A553BF4FDC
:100AA0008D919C918536910548F083E0818306C045
:100AB000211104C0E553FF4F11821082DF91CF91C5
:100AC00008958091F2069091F3061816190634F4F1
:100AD00001979093F3068093F20608958091F106B2
:100AE0008823A1F01092F1062091EF063091F006D4
:100AF00084E090E0821B930B9093F3068093F206C0
:100B0000E2E6F0E080818E7F8083089581E080932B
:100B1000F1068091EF069091F0069093F306809392
:100B2000F206E2E6F0E08081816080830895E09142
:100B3000C906F091CA06309709F44FC08081813010
:100B400009F59091DB068091DC06981305C05F9B48
:100B5000FECF8CB190E008958091DB06E091D7063E
:100B6000F091D806E80FF11D80819FB7F89420918D
:100B7000DB0630E02F5F3F4F2F7730782093DB0686
:100B80009FBF26C0823031F59091D3068091D40664
:100B9000981309C0EBE9F0E080818823ECF780919D
:100BA0009C0090E008958091D306E091CF06F091EB
:100BB000D006E80FF11D80819FB7F8942091D306ED
:100BC00030E02F5F3F4F2F7730782093D3069FBFC1
:100BD00090E008958FEF9FEF08958FEF9FEF0895B6
:100BE000CF93DF93CDB7DEB7C058D1090FB6F894D5
:100BF000DEBF0FBECDBFFC01E15DFE4F108231971D
:100C0000108231971082319710822CE1209364007A
:100C10002FEF2ABB349620812F702083209365000C
:100C2000C158DF4F19821882CF57D040C158DF4FCB
:100C300028813981CF57D040121613069CF1EF96C8
:100C40001FAE1EAEEF97EF962EAD3FADEF9726305D
:100C500031058CF4EF962EAD3FADEF972F5F3F4FF0
:100C6000EF963FAF2EAFEF97EF962EAD3FADEF97DC
:100C7000263031057CF3C158DF4F28813981CF57A9
:100C8000D0402F5F3F4FC158DF4F39832883CF5764
:100C9000D040C158DF4F28813981CF57D04012163C
:100CA00013066CF6FC01E05DFE4F20812B71208362
:100CB00020936500ED961FAE1EAEED97ED962EAD1E
:100CC0003FADED97121613066CF1EB961FAE1EAEFC
:100CD000EB97EB962EAD3FADEB97263031058CF4BC
:100CE000EB962EAD3FADEB972F5F3F4FEB963FAFAF
:100CF0002EAFEB97EB962EAD3FADEB97263031053F
:100D00007CF3ED962EAD3FADED972F5F3F4FED9607
:100D10003FAF2EAFED97ED962EAD3FADED9712168E
:100D200013069CF6FC01E05DFE4F208127712083B5
:100D300020936500E9961FAE1EAEE997E9962EADA9
:100D40003FADE997121613066CF1E7961FAE1EAE83
:100D5000E797E7962EAD3FADE797263031058CF447
:100D6000E7962EAD3FADE7972F5F3F4FE7963FAF3A
:100D70002EAFE797E7962EAD3FADE79726303105CA
:100D80007CF3E9962EAD3FADE9972F5F3F4FE99693
:100D90003FAF2EAFE997E9962EAD3FADE99712161A
:100DA00013069CF6FC01E05DFE4F2081206120834C
:100DB00020936500E5961FAE1EAEE597E5962EAD35
:100DC0003FADE597121613066CF1E3961FAE1EAE0B
:100DD000E397E3962EAD3FADE397263031058CF4D3
:100DE000E3962EAD3FADE3972F5F3F4FE3963FAFC6
:100DF0002EAFE397E3962EAD3FADE3972630310556
:100E00007CF3E5962EAD3FADE5972F5F3F4FE5961E
:100E10003FAF2EAFE597E5962EAD3FADE5971216A5
:100E200013069CF628E32BBBE1961FAE1EAEE1979E
:100E3000E1962EAD3FADE197121613066CF1AF9619
:100E40001FAE1EAEAF97AF962EAD3FADAF9726301B
:100E500031058CF4AF962EAD3FADAF972F5F3F4F6E
:100E6000AF963FAF2EAFAF97AF962EAD3FADAF97DA
:100E7000263031057CF3E1962EAD3FADE1972F5F33
:100E80003F4FE1963FAF2EAFE197E1962EAD3FADDC
:100E9000E197121613069CF6FC01E05DFE4F2081DF
:100EA0002F70208320936500AD961FAE1EAEAD97C8
:100EB000AD962EAD3FADAD97121613066CF1AB9605
:100EC0001FAE1EAEAB97AB962EAD3FADAB972630A7
:100ED00031058CF4AB962EAD3FADAB972F5F3F4FF6
:100EE000AB963FAF2EAFAB97AB962EAD3FADAB976A
:100EF000263031057CF3AD962EAD3FADAD972F5F1B
:100F00003F4FAD963FAF2EAFAD97AD962EAD3FADF7
:100F1000AD97121613069CF6FC01E05DFE4F208192
:100F20002F70208320936500A9961FAE1EAEA9974F
:100F3000A9962EAD3FADA997121613066CF1A79690
:100F40001FAE1EAEA797A7962EAD3FADA797263032
:100F500031058CF4A7962EAD3FADA7972F5F3F4F7D
:100F6000A7963FAF2EAFA797A7962EAD3FADA797F9
:100F7000263031057CF3A9962EAD3FADA9972F5FA2
:100F80003F4FA9963FAF2EAFA997A9962EAD3FAD83
:100F9000A997121613069CF6FC01E05DFE4F208116
:100FA0002B71208320936500A5961FAE1EAEA597DA
:100FB000A5962EAD3FADA597121613066CF1A3961C
:100FC0001FAE1EAEA397A3962EAD3FADA3972630BE
:100FD00031058CF4A3962EAD3FADA3972F5F3F4F05
:100FE000A3963FAF2EAFA397A3962EAD3FADA39789
:100FF000263031057CF3A5962EAD3FADA5972F5F2A
:101000003F4FA5963FAF2EAFA597A5962EAD3FAD0E
:10101000A597121613069CF6FC01E05DFE4F208199
:101020002771208320936500A1961FAE1EAEA19765
:10103000A1962EAD3FADA197121613066CF16F96D7
:101040001FAE1EAE6F976F962EAD3FAD6F972630D9
:1010500031058CF46F962EAD3FAD6F972F5F3F4FEC
:101060006F963FAF2EAF6F976F962EAD3FAD6F97D8
:10107000263031057CF3A1962EAD3FADA1972F5FB1
:101080003F4FA1963FAF2EAFA197A1962EAD3FAD9A
:10109000A197121613069CF6FC01E05DFE4F20811D
:1010A00020612083209365006D961FAE1EAE6D9764
:1010B0006D962EAD3FAD6D97121613066CF16B96C3
:1010C0001FAE1EAE6B976B962EAD3FAD6B97263065
:1010D00031058CF46B962EAD3FAD6B972F5F3F4F74
:1010E0006B963FAF2EAF6B976B962EAD3FAD6B9768
:1010F000263031057CF36D962EAD3FAD6D972F5F99
:101100003F4F6D963FAF2EAF6D976D962EAD3FADB5
:101110006D97121613069CF62EE02BBB69961FAE38
:101120001EAE699769962EAD3FAD699712161306EC
:101130006CF167961FAE1EAE679767962EAD3FADFA
:101140006797263031058CF467962EAD3FAD6797D3
:101150002F5F3F4F67963FAF2EAF679767962EADD5
:101160003FAD6797263031057CF369962EAD3FADD4
:1011700069972F5F3F4F69963FAF2EAF699769968A
:101180002EAD3FAD6997121613069CF6FC01E05D8B
:10119000FE4F20812F7020832093650065961FAE3F
:1011A0001EAE659765962EAD3FAD65971216130678
:1011B0006CF163961FAE1EAE639763962EAD3FAD86
:1011C0006397263031058CF463962EAD3FAD63975F
:1011D0002F5F3F4F63963FAF2EAF639763962EAD61
:1011E0003FAD6397263031057CF365962EAD3FAD5C
:1011F00065972F5F3F4F65963FAF2EAF659765961A
:101200002EAD3FAD6597121613069CF6FC01E05D0E
:10121000FE4F20812F7020832093650061961FAEC2
:101220001EAE619761962EAD3FAD61971216130603
:101230006CF12F961FAE1EAE2F972F962EAD3FADA1
:101240002F97263031058CF42F962EAD3FAD2F977A
:101250002F5F3F4F2F963FAF2EAF2F972F962EAD7C
:101260003FAD2F97263031057CF361962EAD3FAD13
:1012700061972F5F3F4F61963FAF2EAF61976196A9
:101280002EAD3FAD6197121613069CF6FC01E05D92
:10129000FE4F20812B712083209365002D961FAE79
:1012A0001EAE2D972D962EAD3FAD2D97121613061F
:1012B0006CF12B961FAE1EAE2B972B962EAD3FAD2D
:1012C0002B97263031058CF42B962EAD3FAD2B9706
:1012D0002F5F3F4F2B963FAF2EAF2B972B962EAD08
:1012E0003FAD2B97263031057CF32D962EAD3FADCB
:1012F0002D972F5F3F4F2D963FAF2EAF2D972D96F9
:101300002EAD3FAD2D97121613069CF6FC01E05D45
:10131000FE4F2081277120832093650029961FAE00
:101320001EAE299729962EAD3FAD299712161306AA
:101330006CF127961FAE1EAE279727962EAD3FADB8
:101340002797263031058CF427962EAD3FAD279791
:101350002F5F3F4F27963FAF2EAF279727962EAD93
:101360003FAD2797263031057CF329962EAD3FAD52
:1013700029972F5F3F4F29963FAF2EAF2997299688
:101380002EAD3FAD2997121613069CF6FC01E05DC9
:10139000FE4F2081206120832093650025961FAE9B
:1013A0001EAE259725962EAD3FAD25971216130636
:1013B0006CF123961FAE1EAE239723962EAD3FAD44
:1013C0002397263031058CF423962EAD3FAD23971D
:1013D0002F5F3F4F23963FAF2EAF239723962EAD1F
:1013E0003FAD2397263031057CF325962EAD3FADDA
:1013F00025972F5F3F4F25963FAF2EAF2597259618
:101400002EAD3FAD2597121613069CF626E02BBB9A
:1014100021961FAE1EAE219721962EAD3FAD21978E
:10142000121613061CF11EAE1DAE2DAD3EAD2630BC
:1014300031055CF42DAD3EAD2F5F3F4F3EAF2DAF7C
:101440002DAD3EAD26303105ACF321962EAD3FAD2E
:1014500021972F5F3F4F21963FAF2EAF21972196C7
:101460002EAD3FAD219712161306ECF6FC01E05DA0
:10147000FE4F20812F702083209365001CAE1BAE91
:101480002BAD3CAD12161306ECF01AAE19AE29AD19
:101490003AAD263031055CF429AD3AAD2F5F3F4FB0
:1014A0003AAF29AF29AD3AAD26303105ACF32BADBB
:1014B0003CAD2F5F3F4F3CAF2BAF2BAD3CAD121679
:1014C00013061CF7FC01E05DFE4F20812F70208386
:1014D0002093650018AE1FAA2FA938AD1216130667
:1014E000ECF01EAA1DAA2DA93EA9263031055CF4F8
:1014F0002DA93EA92F5F3F4F3EAB2DAB2DA93EA995
:1015000026303105ACF32FA938AD2F5F3F4F38AFF0
:101510002FAB2FA938AD121613061CF7FC01E05DA6
:10152000FE4F20812B712083209365001CAA1BAAEB
:101530002BA93CA912161306ECF01AAA19AA29A97C
:101540003AA9263031055CF429A93AA92F5F3F4F0B
:101550003AAB29AB29A93AA926303105ACF32BA91E
:101560003CA92F5F3F4F3CAB2BAB2BA93CA91216DC
:1015700013061CF7FC01E05DFE4F208127712083DC
:101580002093650018AA1FA62FA538A912161306C6
:10159000ECF01EA61DA62DA53EA5263031055CF457
:1015A0002DA53EA52F5F3F4F3EA72DA72DA53EA5FC
:1015B00026303105ACF32FA538A92F5F3F4F38AB4C
:1015C0002FA72FA538A9121613061CF7FC01E05D02
:1015D000FE4F208120612083209365001CA61BA65E
:1015E0002BA53CA512161306ECF01AA619A629A5E0
:1015F0003AA5263031055CF429A53AA52F5F3F4F67
:101600003AA729A729A53AA526303105ACF32BA581
:101610003CA52F5F3F4F3CA72BA72BA53CA512163F
:1016200013061CF721E02BBB18A61FA22FA138A57B
:1016300012161306ECF01EA21DA22DA13EA126300B
:1016400031055CF42DA13EA12F5F3F4F3EA32DA39A
:101650002DA13EA126303105ACF32FA138A52F5F77
:101660003F4F38A72FA32FA138A5121613061CF73A
:10167000FC01E05DFE4F20812F70208320936500E8
:101680001CA21BA22BA13CA112161306ECF01AA25D
:1016900019A229A13AA1263031055CF429A13AA169
:1016A0002F5F3F4F3AA329A329A13AA12630310544
:1016B000ACF32BA13CA12F5F3F4F3CA32BA32BA14D
:1016C0003CA1121613061CF718A21F8E2F8D38A1ED
:1016D00024363105ECF41E8E1D8E2D8D3E8D263068
:1016E00031055CF42D8D3E8D2F5F3F4F3E8F2D8F4A
:1016F0002D8D3E8D26303105ACF32F8D38A12F5F17
:101700003F4F38A32F8F2F8D38A1243631051CF37E
:10171000FC01E05DFE4F20812F7020832093650047
:101720001C8E1B8E2B8D3C8D12161306ECF01A8E20
:10173000198E298D3A8D263031055CF4298D3A8D2C
:101740002F5F3F4F3A8F298F298D3A8D26303105F3
:10175000ACF32B8D3C8D2F5F3F4F3C8F2B8F2B8D10
:101760003C8D121613061CF7FC01E05DFE4F208134
:101770002B71208320936500188E1F8A2F89388D46
:1017800012161306ECF01E8A1D8A2D893E8926301A
:1017900031055CF42D893E892F5F3F4F3E8B2D8BA9
:1017A0002D893E8926303105ACF32F89388D2F5F86
:1017B0003F4F388F2F8B2F89388D121613061CF749
:1017C000FC01E05DFE4F208127712083209365009E
:1017D0001C8A1B8A2B893C8912161306ECF01A8A84
:1017E000198A29893A89263031055CF429893A8990
:1017F0002F5F3F4F3A8B298B29893A892630310553
:10180000ACF32B893C892F5F3F4F3C8B2B8B2B8973
:101810003C89121613061CF7FC01E05DFE4F208187
:101820002061208320936500188A1F862F853889C0
:1018300012161306ECF01E861D862D853E85263079
:1018400031055CF42D853E852F5F3F4F3E872D8708
:101850002D853E8526303105ACF32F8538892F5FE5
:101860003F4F388B2F872F853889121613061CF7A8
:1018700022E02BBB1C861B862B853C85121613068B
:10188000ECF01A86198629853A85263031055CF4F4
:1018900029853A852F5F3F4F3A87298729853A85E1
:1018A00026303105ACF32B853C852F5F3F4F3C87BD
:1018B0002B872B853C85121613061CF7FC01E05D77
:1018C000FE4F80818F7080838093650018861F8211
:1018D0008F81988518161906CCF01E821D828D8185
:1018E0009E8106974CF48D819E8101969E838D8307
:1018F0008D819E810697BCF38F819885019698878C
:101900008F838F819885181619063CF71C821B82DD
:101910008B819C8184369105CCF41A82198289814D
:101920009A8106974CF489819A8101969A838983DA
:1019300089819A810697BCF38B819C8101969C8357
:101940008B838B819C81843691053CF3C058DF4F9B
:101950000FB6F894DEBF0FBECDBFDF91CF910895D3
:101960009F92AF92BF92CF92DF92EF92FF920F932E
:101970001F93CF93DF937C01A62EE901FC01E45D68
:10198000FE4F6C0183EDC81A8EEFD80A04E610E012
:1019900029C099249394940E8081D6012C9190E0D3
:1019A0000196B8010E94D62B30E082179307C9F048
:1019B000A081B0E0CD01880F991FA80FB91FAE0D0F
:1019C000BF1D4C931196AC9211971296BC922FB7F3
:1019D000F894808190E00196B8010E94D62B808314
:1019E0002FBF492DB990B110D4CFDF91CF911F9166
:1019F0000F91FF90EF90DF90CF90BF90AF909F90AE
:101A00000895CF93C82F0E94E9009093EA04809331
:101A1000E9048C2F877021E030E002C0220F331FD1
:101A20008A95E2F72093E8048C2F0E94FA00FC01CB
:101A300030812091E804232B208381E090E00E94F4
:101A4000E300FC01108223B7277049F412BE29E19C
:101A500021BF23B7207F2C6023BF21E020839093F8
:101A6000EE048093ED041092EC041092EB04E091EC
:101A7000E904F091EA0490818091E804892B808345
:101A8000E091ED04F091EE048081823099F018F439
:101A9000813031F02EC08330B9F08430F9F029C0A4
:101AA00083E694E09093E6068093E50687B782602C
:101AB00087BF1FC083E694E09093E4068093E3061B
:101AC00087B7806187BF15C083E694E09093E206F4
:101AD0008093E10687B7806887BF0BC083E694E0F8
:101AE0009093E0068093DF06EDE7F0E0808180616F
:101AF0008083CF9108958091E6049091E704009748
:101B000009F440C0FC0120812230A1F018F42130FA
:101B100031F034C02330C9F0243011F12FC023B785
:101B2000287F23BF27B72D7F27BF1092E60610928C
:101B3000E50624C02EB5287F2EBD27B72F7E27BFF0
:101B40001092E4061092E30619C025B5287F25BD42
:101B500027B72F7727BF1092E2061092E1060EC03A
:101B6000EAE8F0E02081287F2083EDE7F0E02081A3
:101B70002F7E20831092E0061092DF06FC01108277
:101B80000E94E6008091DE04882341F08091E00409
:101B90009091E104009711F00E94E6001092E70492
:101BA0001092E6041092E1041092E00408955F920E
:101BB0006F927F928F929F92AF92BF92CF92DF925D
:101BC000EF92FF920F931F93CF93DF93EC0144E0CA
:101BD00050E06CE871E00E940D2F892B09F095C14F
:101BE00024968E01D990ED2CF12CC7010E94DE2E97
:101BF000892BB9F7E801C7010E94D72E892B09F478
:101C00005EC00F2EF3E1CF2EF1E0DF2EF02D0F2E70
:101C1000F7E0AF2EF1E0BF2EF02DE12CF12C00E02B
:101C200010E0D6016D917D916D0143E050E0CE0151
:101C30000E94F52E892B59F0F50181915F01E80E84
:101C4000F11C0F5F1F4F0C30110559F744C10C30C8
:101C5000110509F440C18B818D3209F03CC18C81A2
:101C6000282F30E0205331092A30310508F033C1E4
:101C70004D81242F30E0205331092A30310508F0FE
:101C80002AC190E0C097DC01AA0FBB1F880F991FE3
:101C9000880F991F880F991FA80FB91FAE0DBF1D80
:101CA000A40FB11DD19720E831E541E050E00E943A
:101CB0000B2C6B017C018E01095F1F4F2BC0FBE2D7
:101CC000DF120BC0C090E204D090E304E090E40483
:101CD000F090E5040F5F1F4F1DC02DE2D21217C018
:101CE000C090E204D090E304E090E404F090E504B6
:101CF000C701B60120E831E541E050E00E94E92B40
:101D0000C61AD70AE80AF90A0F5F1F4F03C0C12C91
:101D1000D12C7601D8012C91822F90E0C0970A97A0
:101D200008F0D9C011964C911197842F90E0C0977C
:101D30000A9708F09CC012968C9112978A3309F08A
:101D400096C01396CC9113978C2F90E0C0970A976A
:101D500008F0C1C01496EC9114978E2F90E0C097B4
:101D60000A9708F0B8C015968C9115978A3309F038
:101D7000B2C01696FC9116978F2F90E0C0970A97E5
:101D800008F0A9C01796DC918D2F90E0C0970A97B4
:101D900008F0A1C0A22FB0E0D09720EA3CE80E9452
:101DA000052CDC01CB018C0D9D1DAE1DBF1D642FCC
:101DB00070E06053710920E13EE0629FA001639FE3
:101DC000500D729F500D1124662757FD6095762F98
:101DD000840F951FA61FB71F6C2F70E06053710909
:101DE00028E532E0629FA001639F500D729F500D65
:101DF0001124662757FD6095762F840F951FA61F27
:101E0000B71F2E2F30E0205331096CE3629FA001F1
:101E1000639F500D1124662757FD6095762F840F20
:101E2000951FA61FB71F2F2F30E020533109A9019E
:101E3000440F551F220F331F220F331F220F331F52
:101E4000420F531F662757FD6095762F840F951F0D
:101E5000A61FB71F4D2F50E040535109662757FD6D
:101E60006095762F840F951FA61FB71F2AC0F80113
:101E7000319680E090E0DC01880F991FAA1FBB1FFC
:101E8000AC01BD01440F551F661F771F440F551F3E
:101E9000661F771F840F951FA61FB71F820F911D06
:101EA000A11DB11DC097A109B1092191422F50E098
:101EB000405351094A305105F8F28C0D9D1DAE1D5D
:101EC000BF1DBB2344F08093E2049093E304A093EE
:101ED000E404B093E5048091E5048F938091E404D9
:101EE0008F938091E3048F938091E2048F9381E933
:101EF00091E09F938F930E946D2F0F900F900F9002
:101F00000F900F900F9081E0AAC342E050E06BE980
:101F100071E0CE010E940D2F892B09F063C3229638
:101F20008E01D990ED2CF12CC7010E94DE2E892B59
:101F3000B9F7E801C7010E94D72E892B09F45EC0CA
:101F40000F2EF3E1CF2EF1E0DF2EF02D0F2EF7E074
:101F5000AF2EF1E0BF2EF02DE12CF12C00E010E0CF
:101F6000F601619171916F0143E050E0CE010E9452
:101F7000F52E892B59F0D5018D915D01E80EF11CEC
:101F80000F5F1F4F0C30110559F726C30C30110598
:101F900009F422C38B818D3209F01EC38C81282F56
:101FA00030E0205331092A30310508F015C34D8146
:101FB000242F30E0205331092A30310508F00CC3BA
:101FC00090E0C097DC01AA0FBB1F880F991F880FF4
:101FD000991F880F991FA80FB91FAE0DBF1DA40F21
:101FE000B11DD19720E831E541E050E00E940B2C73
:101FF0006B017C018E01095F1F4F2BC0BBE2DB121E
:102000000BC0C090E204D090E304E090E404F090B0
:10201000E5040F5F1F4F1DC0EDE2DE1217C0C09038
:10202000E204D090E304E090E404F090E504C701FA
:10203000B60120E831E541E050E00E94E92BC61AE4
:10204000D70AE80AF90A0F5F1F4F03C0C12CD12C31
:102050007601D801DC918D2F90E0C0970A9708F0A7
:10206000BBC211964C911197842F90E0C0970A97AC
:1020700008F09BC012968C9112978A3309F095C094
:102080001396BC9013978B2D90E0C0970A9708F099
:10209000A3C21496CC9114978C2F90E0C0970A9706
:1020A00008F09AC215968C9115978A3309F094C25C
:1020B0001696FC9116978F2F90E0C0970A9708F01C
:1020C0008BC21796EC918E2F90E0C0970A9708F07C
:1020D00083C2AD2FB0E0D09720EA3CE80E94052CE7
:1020E000C60ED71EE81EF91E242F30E020533109FA
:1020F00080E19EE0289FA001299F500D389F500D40
:102100001124662757FD6095762FC40ED51EE61E56
:10211000F71E2B2D30E02053310988E592E0289FEF
:10212000A001299F500D389F500D1124662757FD9F
:102130006095762FC40ED51EE61EF71ED0E0E09700
:102140008CE38C9FA0018D9F500D1124662757FDB5
:102150006095762FC40ED51EE61EF71E2F2F30E099
:1021600020533109A901440F551F220F331F220F9D
:10217000331F220F331F420F531F662757FD6095F1
:10218000762FC40ED51EE61EF71E4E2F50E040538C
:102190005109662757FD6095762F9801285F3F4FBC
:1021A000C40ED51EE61EF71E2BC0F801319680E046
:1021B00090E0DC019F01880F991FAA1FBB1FAC0193
:1021C000BD01440F551F661F771F440F551F661F23
:1021D000771F840F951FA61FB71F8D0F911DA11D7F
:1021E000B11DC097A109B109D1914D2F50E04053C5
:1021F00051094A305105F0F2C80ED91EEA1EFB1EE5
:10220000FF200CF4E9C18091BC039091BD03A09123
:10221000BE03B091BF03892B8A2B8B2BA9F0E6EF6D
:10222000F3E05524539480819181A281B381892B5D
:102230008A2B8B2B31F05394FA96B5E05B12F3CFD7
:10224000CBC1552014F4C8C1512C8901E8010F5F9E
:102250001F4F888190E00E94DE2E892BB9F73E0146
:10226000E52DFAE3EF028001112404541C4FD8013C
:10227000CD92DD92ED92FC921397F8808F2D90E035
:102280000E94D72E892B09F463C00F2EF3E1CF2EC5
:10229000F1E0DF2EF02D0F2EF7E0AF2EF1E0BF2E94
:1022A000F02DE12CF12C812C912CF6016191719192
:1022B0006F0143E050E0C3010E94F52E892B69F0C5
:1022C000D5018D915D01E80EF11CBFEF8B1A9B0AC1
:1022D000ECE08E16910449F747C1FCE08F1691049B
:1022E00009F442C1D30113968C9113978D3209F0F2
:1022F0003BC114963C911497832F90E0C0970A97A6
:1023000008F032C115962C91822F90E0C0970A9761
:1023100008F02AC1832F90E0C097DC01AA0FBB1FF1
:10232000880F991F880F991F880F991FA80FB91F31
:10233000AE0DBF1DA20FB11DD19720E831E541E0E0
:1023400050E00E940B2C6B017C01F30137962CC0EE
:10235000BBE2FB120BC0C090E204D090E304E0901B
:10236000E404F090E504FE0131961EC0EDE2FE1299
:1023700017C0C090E204D090E304E090E404F09031
:10238000E504C701B60120E831E541E050E00E94D4
:10239000E92BC61AD70AE80AF90AFE01319604C0E9
:1023A000FE01C12CD12C76016081862F90E0C09770
:1023B0000A9708F0D9C04181842F90E0C0970A970E
:1023C00008F095C082818A3309F091C0B3808B2DCB
:1023D00090E0C0970A9708F0C7C05481852F90E01D
:1023E000C0970A9708F0C0C085818A3309F0BCC045
:1023F000A6802A2D30E0205331092A30310508F01B
:10240000B3C09780292D30E0205331092A3031059F
:1024100008F0AAC0A62FB0E0D09720EA3CE80E94BE
:10242000052CC60ED71EE81EF91EC42FD0E0E0977B
:10243000A0E1BEE0CA9F9001CB9F300DDA9F300D26
:102440001124C901AA2797FDA095BA2F8C0D9D1DB7
:10245000AE1DBF1D6B2D70E06053710928E532E0A1
:10246000629F6001639FD00C729FD00C1124EE24F8
:10247000D7FCE094FE2C8C0D9D1DAE1DBF1D252F9D
:1024800030E0205331096CE3629FA001639F500D3F
:102490001124662757FD6095762F840F951FA61F80
:1024A000B71FB12C20E3A21AB108A501440F551F94
:1024B000AA0CBB1CAA0CBB1CAA0CBB1C4A0D5B1DA6
:1024C000662757FD6095762F840F951FA61FB71FAF
:1024D000492D50E040535109662757FD6095762FEE
:1024E000EF012896840F951FA61FB71F2AC03196AB
:1024F00080E090E0DC01EF01880F991FAA1FBB1F4D
:102500004C015D01880C991CAA1CBB1C880C991CF1
:10251000AA1CBB1C880D991DAA1DBB1D860F911DF1
:10252000A11DB11DC097A109B1096191262F30E00D
:10253000205331092A303105F0F28C0D9D1DAE1D5E
:10254000BF1DBB238CF0F80184839583A683B783DA
:102550007E01E701FFEFEF1AFF0A888190E00E94F9
:10256000DE2E892BB1F707C0D80114961D921D925B
:102570001D921C9217977801B8E0EB0EF11CBE017A
:10258000C7010E94EE2EFF92EF92F80187818F9390
:1025900086818F9385818F9384818F9383818F939D
:1025A00082818F9381818F9380818F93852D99274D
:1025B00087FD90959F935F928EE991E09F938F9313
:1025C0000E946D2F8DB79EB70E960FB6F8949EBFE2
:1025D0000FBE8DBF81E043C087EB91E00E947E2F4C
:1025E00081E03DC046E050E061EC71E0CE010E9428
:1025F0000D2F892B99F526968E012196D8018C9165
:1026000090E00E94DE2E892BB9F7C8010E94B82EF7
:102610008530F0F4282F332727FD3095BAE38B025D
:10262000F0011124E454FC4F1082118212821382B3
:10263000882374F03F938F9388EC91E09F938F935E
:102640000E946D2F0F900F900F900F9081E007C0A8
:1026500083ED91E00E947E2F81E001C080E0DF9158
:10266000CF911F910F91FF90EF90DF90CF90BF908F
:10267000AF909F908F907F906F905F900895E091C2
:10268000E906F091EA068081823079F018F4813011
:1026900031F02DC08330A1F08430C1F028C012BECB
:1026A00080E281BF89E083BF22C01FBC1EBC1DBC6D
:1026B0001CBC80E293E09BBD8ABD89E08EBD17C043
:1026C00014BC80E283BD89E085BD11C010928B00EF
:1026D000EAE8F0E01082109289001092880080E20F
:1026E00093E0909387008093860089E08083E09157
:1026F000EB06F091EC061082E091EB06F091EC060F
:102700001182E091EB06F091EC061282E553FF4F47
:1027100011821082E091E906F091EA068081823010
:1027200011F4BC9801C01298E091E906F091EA0614
:102730008081823099F018F4813031F0089583302F
:10274000B9F08430F9F0089585EB94E09093E606B3
:102750008093E50687B7826087BF089585EB94E094
:102760009093E4068093E30687B7806187BF08955E
:1027700085EB94E09093E2068093E10687B780684A
:1027800087BF089585EB94E09093E0068093DF0681
:10279000EDE7F0E080818061808308950F931F93BF
:1027A000CF93DF93E091E706F091E80680818230D5
:1027B00069F018F4813031F016C0833059F084305C
:1027C00069F011C087B78D7F87BF0DC087B78F7E37
:1027D00087BF09C087B78F7787BF05C0EDE7F0E0F7
:1027E00080818F7E8083E091E706F091E80680810A
:1027F000823019F4BD9AC59804C0843011F4139A3C
:102800001B98E091E706F091E8068081823019F08C
:10281000843071F01FC082ED90E097BD86BD86E4E4
:1028200090E09BBD8ABD82E08FBD81E18EBD12C06C
:1028300082ED90E0909381008093800086E490E0A8
:10284000909387008093860082E080938B0081E1E3
:1028500080938A00E091E706F091E806808182305B
:1028600069F018F4813031F016C0833059F08430AB
:1028700069F011C083B7806283BF0DC08FB58068D7
:102880008FBD09C085B5806285BD05C0EBE8F0E06D
:102890008081806880838AE19EE40197F1F7E0916E
:1028A000E706F091E8068081823069F018F4813003
:1028B00031F016C0833059F0843069F011C083B70D
:1028C0008F7D83BF0DC08FB58F778FBD09C085B554
:1028D0008F7D85BD05C0EBE8F0E080818F77808338
:1028E0008AE19EE40197F1F7121613060CF09DC0E1
:1028F00080E090E0AAEBB8E0CBE8D0E00AEF18E186
:1029000077230CF045C0E091E706F091E806E081FE
:10291000E23069F018F4E13031F014C0E33059F0DE
:10292000E43069F00FC0E3B7E062E3BF0BC0EFB57E
:10293000E068EFBD07C0E5B5E062E5BD03C0E88132
:10294000E068E883FD013197F1F7E091E706F09147
:10295000E806E081E23069F018F4E13031F014C0AB
:10296000E33059F0E43069F00FC0E3B7EF7DE3BF27
:102970000BC0EFB5EF77EFBD07C0E5B5EF7DE5BD67
:1029800003C0E881EF77E883F8013197F1F744C09D
:10299000E091E706F091E806E081E23069F018F492
:1029A000E13031F014C0E33059F0E43069F00FC089
:1029B000E3B7E062E3BF0BC0EFB5E068EFBD07C06F
:1029C000E5B5E062E5BD03C0E881E068E883FD01AC
:1029D0003197F1F7E091E706F091E806E081E23007
:1029E00069F018F4E13031F014C0E33059F0E4300C
:1029F00069F00FC0E3B7EF7DE3BF0BC0EFB5EF7732
:102A0000EFBD07C0E5B5EF7DE5BD03C0E881EF7719
:102A1000E883FD013197F1F7440F551F661F771FBB
:102A200001968217930709F06BCFE091E706F091CA
:102A3000E8068081823069F018F4813031F016C0E8
:102A4000833059F0843069F011C083B7806283BF4E
:102A50000DC08FB580688FBD09C085B5806285BD0A
:102A600005C0EBE8F0E08081806880838AEB98E025
:102A70000197F1F7E091E706F091E8068081823056
:102A800069F018F4813031F016C0833059F0843089
:102A900069F011C083B78F7D83BF0DC08FB58F776D
:102AA0008FBD09C085B58F7D85BD05C0EBE8F0E021
:102AB00080818F778083DF91CF911F910F9108954F
:102AC000CF93DF93CDB7DEB7C156D1090FB6F894D7
:102AD000DEBF0FBECDBFF89480E493EDACEDB0E067
:102AE0008093E2049093E304A093E404B093E5049C
:102AF00081E080932B0181E090E00E94E300FC01E3
:102B0000108280918A008770A1F41092890010923F
:102B1000880089E09DE3909387008093860010925F
:102B20008B00AAE8B0E08C91807F8D608C9384E06C
:102B30008083F093E704E093E6048081823099F08B
:102B400018F4813031F02EC08330B9F08430F9F0C0
:102B500029C08DE894E09093E6068093E50687B758
:102B6000826087BF1FC08DE894E09093E406809355
:102B7000E30687B7806187BF15C08DE894E0909326
:102B8000E2068093E10687B7806887BF0BC08DE8B7
:102B900094E09093E0068093DF06EDE7F0E080811B
:102BA000806180838091E0049091E104892B71F42D
:102BB00081E391E00E94E3008C010E94F0051093F4
:102BC000E1040093E00481E08093DE0440912B0156
:102BD0002091E0043091E1040F2EFCE2EF2EF1E0B1
:102BE000FF2EF02DAA24A394F901E45DFE4F6901A4
:102BF00053EDC51A5EEFD50A04E610E02BC0BB24E6
:102C0000B394BA0C8081D6018C9090E00196B80103
:102C10000E94D62B682D70E086179707D1F080812F
:102C200090E0BC01660F771F860F971FD901A80F90
:102C3000B91FAC9211964C93119712969C92AFB615
:102C4000F894808190E00196B8010E94D62B808391
:102C5000AFBEAB2CD7019D907D019110D0CFECEB96
:102C6000F3E01082118212821382FA96B4E0EE3DF4
:102C7000FB07B8F38091E0049091E1049093FD0686
:102C80008093FC060E947B0D25E232E041E061E08A
:102C90008091FC069091FD060E94B00C81E090E0CE
:102CA0000E94E3008C01FC0110828091D10690917A
:102CB000D206892B81F51092D3061092D406109279
:102CC000D5061092D60680E890E00E94802C909362
:102CD000D2068093D10680E890E00E94802C9093E9
:102CE000D0068093CF06EAE9F0E0108222E020933C
:102CF0009B0086E080939D0080E180939900109274
:102D0000980088EA93E09093CC068093CB0688E9FC
:102D10008083D8012C931093CA060093C90667E9F3
:102D200075E080E093E00E94232F80E20E94010D75
:102D300088E10E94E9009093BB038093BA0321E0ED
:102D40002093B903FC0120812E6F208389E10E942A
:102D5000E9009093B8038093B70322E02093B60371
:102D6000DC012C912D6F2C9381E090E00E94E30018
:102D7000FC01108225B5277049F414BC2AEF23BD4D
:102D800025B5207F286025BD23E020839093F5069C
:102D90008093F406E1E6F0E0808181608083E2E6E2
:102DA000F0E08081816080838FE087BB81BB81E020
:102DB00090E00E94E3008C0162E00E9432021093D6
:102DC000FB060093FA06C8015ADC81E090E00E94FD
:102DD000E3008C0162E00E94A0021093F9060093C8
:102DE000F80678942091FC063091FD06F901E35D28
:102DF000FE4F908131978081981709F4D9C331969D
:102E0000808190E0FC01EE0FFF1FE80FF91FE20F39
:102E1000F31F9081D901A25DBE4F8C91981306C01B
:102E2000918111968C91981709F4BEC281814081DD
:102E3000813009F098C14158D901A05DBE4F8C91F5
:102E40008F708C93809365006F961FAE1EAE6F9748
:102E50006F968EAD9FAD6F97181619064CF16D9653
:102E60001FAE1EAE6D976D968EAD9FAD6D9706979A
:102E70007CF46D968EAD9FAD6D9701966D969FAF6C
:102E80008EAF6D976D968EAD9FAD6D9706978CF357
:102E90006F968EAD9FAD6F9701966F969FAF8EAF79
:102EA0006F976F968EAD9FAD6F9718161906BCF68B
:102EB000D901A05DBE4F8C918B718C93809365007E
:102EC0006B961FAE1EAE6B976B968EAD9FAD6B97DC
:102ED000181619064CF169961FAE1EAE69976996D1
:102EE0008EAD9FAD699706977CF469968EAD9FADC8
:102EF0006997019669969FAF8EAF699769968EAD77
:102F00009FAD699706978CF36B968EAD9FAD6B97CF
:102F100001966B969FAF8EAF6B976B968EAD9FAD04
:102F20006B9718161906BCF6D901A05DBE4F8C919F
:102F300087718C938093650067961FAE1EAE67976E
:102F400067968EAD9FAD6797181619064CF165967A
:102F50001FAE1EAE659765968EAD9FAD65970697C1
:102F60007CF465968EAD9FAD6597019665969FAF93
:102F70008EAF659765968EAD9FAD659706978CF37E
:102F800067968EAD9FAD6797019667969FAF8EAFA0
:102F9000679767968EAD9FAD679718161906BCF6B2
:102FA000D901A05DBE4F8C9180618C9380936500A8
:102FB00063961FAE1EAE639763968EAD9FAD63970B
:102FC000181619064CF161961FAE1EAE61976196F8
:102FD0008EAD9FAD619706977CF461968EAD9FADE7
:102FE0006197019661969FAF8EAF619761968EADA6
:102FF0009FAD619706978CF363968EAD9FAD6397F7
:10300000019663969FAF8EAF639763968EAD9FAD2B
:10301000639718161906BCF64BBB2F961FAE1EAE53
:103020002F972F968EAD9FAD2F97181619064CF13E
:103030002D961FAE1EAE2D972D968EAD9FAD2D9762
:1030400006977CF42D968EAD9FAD2D9701962D960B
:103050009FAF8EAF2D972D968EAD9FAD2D97069776
:103060008CF32F968EAD9FAD2F9701962F969FAF25
:103070008EAF2F972F968EAD9FAD2F9718161906EE
:10308000BCF6D901A05DBE4F8C918F708C9380935C
:1030900065002B961FAE1EAE2B972B968EAD9FAD67
:1030A0002B97181619064CF129961FAE1EAE2997BC
:1030B00029968EAD9FAD299706977CF429968EAD03
:1030C0009FAD2997019629969FAF8EAF2997299694
:1030D0008EAD9FAD299706978CF32B968EAD9FAD45
:1030E0002B9701962B969FAF8EAF2B972B968EAD7D
:1030F0009FAD2B9718161906BCF627961FAE1EAE6D
:10310000279727968EAD9FAD2797181619060CF4B2
:103110004BC125961FAE1EAE259725968EAD9FAD51
:10312000259706977CF425968EAD9FAD2597019641
:1031300025969FAF8EAF259725968EAD9FAD25978F
:1031400006978CF327968EAD9FAD2797019627960D
:103150009FAF8EAF279727968EAD9FAD27971816F6
:103160001906BCF621C1823009F01EC14154D901B3
:10317000A05DBE4F8C918F708C93809365002396D9
:103180001FAE1EAE239723968EAD9FAD23971816C4
:1031900019064CF121961FAE1EAE219721968EADD9
:1031A0009FAD219706977CF421968EAD9FAD219718
:1031B000019621969FAF8EAF219721968EAD9FAD40
:1031C000219706978CF323968EAD9FAD239701969A
:1031D00023969FAF8EAF239723968EAD9FAD2397F7
:1031E00018161906BCF6D901A05DBE4F8C918B71E3
:1031F0008C93809365001EAE1DAE8DAD9EAD1816EE
:103200001906CCF01CAE1BAE8BAD9CAD06974CF4F2
:103210008BAD9CAD01969CAF8BAF8BAD9CAD0697F3
:10322000BCF38DAD9EAD01969EAF8DAF8DAD9EADC5
:10323000181619063CF7D901A05DBE4F8C91877115
:103240008C93809365001AAE19AE89AD9AAD1816AD
:103250001906CCF018AE1FAA8FA998AD06974CF4AA
:103260008FA998AD019698AF8FAB8FA998AD0697AF
:10327000BCF389AD9AAD01969AAF89AF89AD9AAD8D
:10328000181619063CF7D901A05DBE4F8C918061DC
:103290008C93809365001EAA1DAA8DA99EA918165D
:1032A0001906CCF01CAA1BAA8BA99CA906974CF462
:1032B0008BA99CA901969CAB8BAB8BA99CA906976B
:1032C000BCF38DA99EA901969EAB8DAB8DA99EA93D
:1032D000181619063CF74BBB1AAA19AA89A99AA96C
:1032E00018161906CCF018AA1FA68FA598A906973C
:1032F0004CF48FA598A9019698AB8FA78FA598A994
:103300000697BCF389A99AA901969AAB89AB89A9BA
:103310009AA9181619063CF7D901A05DBE4F8C91E9
:103320008F708C93809365001EA61DA68DA59EA50B
:1033300018161906CCF01CA61BA68BA59CA50697F3
:103340004CF48BA59CA501969CA78BA78BA59CA54F
:103350000697BCF38DA59EA501969EA78DA78DA56A
:103360009EA5181619063CF71AA619A689A59AA5AE
:1033700018161906CCF018A61FA28FA198A50697BB
:103380004CF48FA198A5019698A78FA38FA198A51B
:103390000697BCF389A59AA501969AA789A789A53E
:1033A0009AA5181619063CF7808190E001968F7057
:1033B0009078D901A25DBE4F8C93818111968C9338
:1033C0004281F901E05DFE4F80818F7080838093A0
:1033D00065001EA21DA28DA19EA118161906CCF093
:1033E0001CA21BA28BA19CA106974CF48BA19CA1B3
:1033F00001969CA38BA38BA19CA10697BCF38DA1E6
:103400009EA101969EA38DA38DA19EA118161906BB
:103410003CF7F901E05DFE4F8081846080838093FA
:1034200065001AA219A289A19AA118161906CCF052
:1034300018A21F8E8F8D98A106974CF48F8D98A19E
:10344000019698A38F8F8F8D98A10697BCF389A1C1
:103450009AA101969AA389A389A19AA1181619067F
:103460003CF7F901E05DFE4F808187718083809396
:1034700065001E8E1D8E8D8D9E8D18161906CCF042
:103480001C8E1B8E8B8D9C8D06974CF48B8D9C8D8A
:1034900001969C8F8B8F8B8D9C8D0697BCF38D8DA9
:1034A0009E8D01969E8F8D8F8D8D9E8D181619067F
:1034B0003CF7F901E05DFE4F80818061808380935D
:1034C00065001A8E198E898D9A8D18161906CCF002
:1034D000188E1F8A8F89988D06974CF48F89988D46
:1034E0000196988F8F8B8F89988D0697BCF3898D65
:1034F0009A8D01969A8F898F898D9A8D1816190643
:103500003CF74BBB1E8A1D8A8D899E8918161906A9
:10351000CCF01C8A1B8A8B899C8906974CF48B897A
:103520009C8901969C8B8B8B8B899C890697BCF31D
:103530008D899E8901969E8B8D8B8D899E8918160B
:1035400019063CF7F901E05DFE4F80818F708083A2
:10355000809365001A8A198A89899A89181619062A
:10356000CCF0188A1F868F85988906974CF48F8532
:1035700098890196988B8F878F8598890697BCF3D9
:1035800089899A8901969A8B898B89899A891816D3
:1035900019063CF74FB7F894F901E35DFE4F8081BF
:1035A00090E0019664E670E00E94D62B80834FBFC6
:1035B0008091C9069091CA06892B81F19091DB0612
:1035C0008091DC06981739F0E091CD06F091CE0697
:1035D000309709F009959091D3068091D4069817F9
:1035E00039F0E091CB06F091CC06309709F00995BF
:1035F0009091DD068091DE06981721F05D9B02C058
:103600000C9474289091D5068091D606981731F0C5
:1036100080919B0085FF02C00C948B2820915F064F
:1036200080916006281799F0822F90E0F2E32F9F97
:1036300090011124A90149565A4F3A01019683700D
:10364000907880935F064115510569F405C6609036
:103650006306709064066114710409F4FDC510924C
:10366000640610926306C090FC06D090FD0693019C
:10367000AA24A394F601E45DFE4F760153EDE51A0A
:103680005EEFF50A04E610E06894882481F82AC009
:10369000992493949A0C8081D7014C9190E00196E3
:1036A000B8010E94D62B50E084179507D1F0808195
:1036B00090E0AC01440F551F840F951FD601A80F51
:1036C000B91FAC9211968C9211971296BC924FB77B
:1036D000F894808190E00196B8010E94D62B8083F7
:1036E0004FBFA92CD901BD909D01B110D1CF43E0AE
:1036F00050E062E073E0C3010E940D2F892B11F0AE
:103700000C94A328B3E06B0E711C8301EFEF6E1ACB
:103710007E0AD801EC90F12CC7010E94DE2E892B85
:10372000A1F743E050E066E073E0C8010E940D2F6E
:10373000892B09F0D8C1E0E0F0E0A485B5859C9123
:103740008685892B8C93A285B3858C9196859095DF
:1037500089238C931E861D868D859E8583349105D5
:10376000CCF41C861B868B859C8506974CF48B8538
:103770009C8501969C878B878B859C850697BCF3DF
:103780008D859E8501969E878D878D859E85833448
:1037900091053CF3A0E0B0E01A96ED91FC911B97E7
:1037A00090811E968C911E97892B80831C96ED919B
:1037B000FC911D9780811E969C911E979095892360
:1037C00080831896ED91FC9119971E961C9180E2CA
:1037D00093E004C00197009709F471C02081212370
:1037E000C9F780E991E004C00197009709F46CC023
:1037F00020812123C9F380E991E004C0019700975B
:1038000009F467C020812123C9F7C12C6894EE24F4
:10381000E7F8D12C40E050E080E991E020E931E088
:103820000F2EF8E2FF2EF02DA0E00F2EFFE8AF2EB6
:10383000F02DBB24B394812C6894992497F860E907
:1038400071E00081012329F5AA2319F1B2E2BF1525
:1038500060F48217930708F49C01AB01421B530BE1
:10386000569547955695479507C0D901A41BB50BAA
:10387000A817B90708F0DE28E69439F4AC2DB0E0BB
:103880001F96DC92C394D82CE92CFA948A2D9B2D98
:1038900003C00197009711F1FF2011F0A02FD1CFA5
:1038A000E0E0F0E0A485B5858C91182B1C93A285EF
:1038B000B3859C918685892B8C93F12C13C00F2E98
:1038C000FDEFFF2EF02D0EC00F2EFCEFFF2EF02D82
:1038D00009C00F2EFBEFFF2EF02D04C00F2EFEEFC0
:1038E000FF2EF02D00E010E0F80187858370D82EC0
:1038F0008787B188FB2DF378EF2ED8015196FC9382
:1039000051975096CC906C2D70E0782B80E090E031
:103910000E94BD2A2DEC3CEC4CEC5DE30E944F2B49
:10392000F801608371838283938312898B2D837066
:10393000612F70E0782B80E090E00E94BD2A2DEC92
:103940003CEC4CEC5DE30E944F2BEE204CF060937E
:1039500004007093050080930600909307000BC04D
:10396000DC01CB01B0588093040090930500A09334
:103970000600B09307001C0DD10EED0C80911300D2
:10398000E812A2C08F2D992787FD9095009709F026
:103990009DC00F2EF5EFEF2EF4E0FF2EF02D0FEE71
:1039A00014E00F2EF2E39F2EF02DC12CD12CD80164
:1039B0008C91882309F44EC0813031F4F601648182
:1039C00075818681978108C0823009F043C0D60195
:1039D0006D917D918D919C917E2C8F2CF701359767
:1039E000208121110CC09B01AC01F801628173811F
:1039F000848195810E944B2B181674F02BC02130C6
:103A000049F5D80112962D913D914D915C911597F4
:103A10000E944B2B1816F4F42091600630E05901F7
:103A2000BFEFAB1ABB0AE3E0AE22E0E8BE22809112
:103A30005F0690E0A816B906B9F0929EC001939E69
:103A4000900D1124672D782D89569A4F0E94EE2EE5
:103A5000A0926006085C1F4FF8E3EF0EF11C25E012
:103A60000739120708F4A3CFC12CD12CD601149624
:103A70006D917D918D919C911797FE0131967F01FB
:103A80008F0121E045E00E94602CFF92EF928AE0D6
:103A900093E09F938F930E946D2FD6016D917D913E
:103AA0008D919C9121E045E00E94602CFF92EF9265
:103AB00082EB91E09F938F930E946D2F0FB6F89445
:103AC000DEBF0FBECDBFC8C38FEF9FEF9F938F9315
:103AD00081E193E09F938F930E946D2F0F900F9041
:103AE0000F900F90B9C344E050E06FE173E0C8015C
:103AF0000E940D2F892B81F50C5F1F4F78010F5FFE
:103B00001F4FD7018C9190E00E94DE2E892BB1F7D8
:103B1000C7010E94B82E833068F4282F332727FD71
:103B20003095B8E38B02F0011124E151FB4F108274
:103B300033232CF484E293E00E947E2F8DC33F93C5
:103B40008F9384E393E09F938F930E946D2F0F9048
:103B50000F900F900F9080C3C7010E94E62E84370C
:103B6000910549F08836910509F076C3E2E0A19607
:103B7000EFAFA19704C0F1E0A196FFAFA1970F5F4F
:103B80001F4FD02EE12ED801FD908D018F2D90E09A
:103B90000E94DE2E892BA9F7BCE3FB1641F0EEE371
:103BA000FE1218C1F1E0A296FFAFA29703C0A29641
:103BB0001FAEA2970D2D1E2D7801D801DD908D012D
:103BC0008D2D90E00E94DE2E892BB1F7BDE2DB1235
:103BD00006C07801FFEFA096FFAFA0970FC02BE2C1
:103BE000D21208C03FEFE31AF30A41E0A0964FAFAC
:103BF000A09704C051E0A0965FAFA0978701D701BE
:103C0000BD907D01CB2CD12CC6010E94DE2E892BCC
:103C1000A9F7C601C0978A30910508F0DBC078018A
:103C2000BFEFEB1AFB0ABC01882777FD8095982F20
:103C30000E94BF2A3B014C01F801D1808D2D90E0FC
:103C4000C0970A9748F50E5F1F4F780120E030E0DB
:103C500040E251E4C401B3010E944F2B4B015C01CF
:103C60006D2D70E080E090E00E94BF2A9B01AC01C6
:103C7000C501B4010E94F12920E030E040E452E4A3
:103C80000E94F0293B014C01D801DD908D018D2D62
:103C900090E0C0970A97C8F2BEE2DB1241C08701EC
:103CA0000F5F1F4FF701D1808D2D90E0C0970A97CD
:103CB000C0F5F2E0EF0EF11C0F2E212C312CF0E8B4
:103CC0004F2EFFE35F2EF02D20E030E040E251E484
:103CD000C201B1010E94552A1B012C0187016D2DE3
:103CE00070E060537109882777FD8095982F0E94B6
:103CF000BF2A9B01AC01C201B1010E944F2B9B0165
:103D0000AC01C401B3010E94F1293B014C01D70170
:103D1000DD907D018D2D90E0C0970A97A8F201C03B
:103D2000870168010F5F1F4FF601808190E00E94BC
:103D3000DE2E892BB1F78091EF04882361F080910A
:103D40002705882311F40C94E82980915F058111DF
:103D500041C00C94EA2900E010E088E3809F500104
:103D6000819FB00C1124950121513B4F7901A196FF
:103D7000EFADA197D901EC93A296FFADA297119652
:103D8000FC93A0962FADA097622F772767FD7095C3
:103D9000872F972F0E94BF2AA40193010E944F2BC7
:103DA000D70112966D937D938D939C931597B601D1
:103DB000C5018B509B4F0E94EE2E1F930F9381E401
:103DC00093E09F938F930E946D2F0F900F900F9011
:103DD0000F9042C281E593E00E947E2F3DC2B5E084
:103DE0006B0E711C8301EFEF6E1A7E0AD8018C9165
:103DF00090E00E94DE2E892BA9F743E050E066E0B8
:103E000073E0C8010E940D2F892B69F1C8010E943F
:103E1000B82E99236CF425E030E0F901E81BF90B8A
:103E2000CF016AE070E00E94D62B2FEF3FEF07C072
:103E300005966AE070E00E94D62B21E030E0862FE4
:103E4000972F8A30910514F089E090E0829FA001BD
:103E5000839F500D929F500D1124CA010E9690938E
:103E60003D0180933C0120913C0130913D012E5059
:103E70003109C901880F991F220F331F220F331FE9
:103E8000220F331F820F931F9F938F9383E693E03C
:103E90009F938F930E946D2F0F900F900F900F9014
:103EA000DBC1F3E06F0E711C83012FEF621A720AFF
:103EB000D8018C9190E00E94DE2E892BA9F742E078
:103EC00050E062E873E0C8010E940D2F892B51F485
:103ED000E091BA03F091BB0390818091B903892BE3
:103EE0008083BAC143E050E06DE673E0C8010E94F0
:103EF0000D2F892B09F0B0C1E091BA03F091BB03FB
:103F000080819091B903909589238083A5C1B6E003
:103F10006B0E711C8301EFEF6E1A7E0AD8018C9133
:103F200090E00E94DE2E892BA9F742E050E062E883
:103F300073E0C8010E940D2F892B51F4E091B70363
:103F4000F091B80390818091B603892B808384C15E
:103F500043E050E06DE673E0C8010E940D2F892B0D
:103F600009F07AC1E091B703F091B8038081909194
:103F7000B6039095892380836FC143E050E061E7E9
:103F800073E0C3010E940D2F892B11F00C94C828F7
:103F9000B3E06B0E711C8301EFEF6E1A7E0AD8013D
:103FA0008C9190E00E94DE2E892BA9F7C8010E9417
:103FB000B82E8530910514F084E090E0992314F434
:103FC00080E090E02091EF063091F006232B09F07D
:103FD0007BC0181619060CF0D3C0E091F406F091DE
:103FE000F5062081213059F0223091F018F421306B
:103FF00041F030C02330B9F02430D9F02BC024E098
:1040000001C023E012BE3AEF31BF286023BF22C0B7
:104010001FBC1EBC1DBC1CBC2AEF30E03BBD2ABD32
:104020002BE02EBD17C014BC2AEF23BD2BE025BD0D
:1040300011C010928B00EAE8F0E010821092890023
:10404000109288002AEF30E030938700209386009A
:104050002BE02083E091F406F091F50620812230D8
:1040600099F018F4213031F08BC02330B9F02430AE
:10407000F9F086C021E635E03093E6062093E506A8
:1040800027B7226027BF7CC021E635E03093E406E5
:104090002093E30627B7206127BF72C021E635E0F1
:1040A0003093E2062093E10627B7206827BF68C057
:1040B00021E635E03093E0062093DF06EDE7F0E0FF
:1040C0002081206120835CC0009709F059C0E091F5
:1040D000F406F091F5062081223079F018F42130B1
:1040E00031F02DC02330A1F02430C1F028C012BE21
:1040F0002AEF21BF28E023BF22C01FBC1EBC1DBC6D
:104100001CBC2AEF30E03BBD2ABD28E02EBD17C005
:1041100014BC2AEF23BD28E025BD11C010928B00EE
:10412000EAE8F0E0108210928900109288002AEFED
:1041300030E0309387002093860028E02083E091D0
:10414000F406F091F5062081223069F018F4213050
:1041500031F016C0233059F0243069F011C027B770
:104160002D7F27BF0DC027B72F7E27BF09C027B7D8
:104170002F7727BF05C0EDE7F0E020812F7E208359
:104180009093F0068093EF069093F3068093F206E7
:104190001092F10661C0F89440E150E060E070E0F8
:1041A000C3010E94A72DAB01BC0120E230E0809149
:1041B000F8069091F9060E94CE138091FA0690912C
:1041C000FB060E943F13789425E733E041E062E06C
:1041D0008091FC069091FD060E94B00C3DC047E026
:1041E00050E06FE773E0C3010E940D2F892B81F52A
:1041F0008091ED069091EE06892BA9F010920601B0
:104200000091FC061091FD0625E232E041E061E0FC
:10421000C8010E94B00C25E232E041E062E0C80132
:104220000E94B00C15C081E0809306010091FC064D
:104230001091FD0627E432E041E061E0C8010E94F0
:10424000B00C26E332E041E062E0C8010E94B00C0D
:1042500085E893E00E947E2FE091EB06F091EC065A
:104260008181833009F09FC7F093F706E093F6064B
:10427000309711F40C94F2168181833009F062C6F4
:1042800085819681885891098D35910508F491C7EB
:10429000E2C7878190858097479708F48EC7A6C7A5
:1042A00087819085825491098E9708F0D4C7C12CDC
:1042B000D12C760123E030E0A901440F551F4E0FA9
:1042C0005F1FDA0113964D915C9114974950510983
:1042D0004930510508F48FC7BEC72E5F3F4F2334C6
:1042E000310551F740E250E09F012D523F4FD90177
:1042F0004D935C9324503109D901CD92DD92ED921A
:10430000FC92139781E080836AC087819085CA9769
:10431000899708F0F0C7C12CD12C760123E030E05A
:10432000A901440F551F4E0F5F1FDA0113964D91DF
:104330005C9114974A5051094930510508F498C7C7
:10434000DAC72E5F3F4F2B33310551F7220F331F52
:104350002E0F3F1FD90113962D913C9114972A508F
:1043600031092930310508F4B3C7C5C78781908565
:104370008097479708F4CAC7E2C787819085895418
:104380009109C39708F0DEC5C12CD12C760123E03A
:1043900030E0A901440F551F4E0F5F1FDA0113963D
:1043A0004D915C911497495051094930510508F4D9
:1043B000CBC7C8C52E5F3F4F2334310551F7220FBD
:1043C000331F2E0F3F1FD90113962D913C91149747
:1043D0002A5031092930310508F4E7C7B3C5808177
:1043E000882309F4AFC5A091F606B091F706FD0148
:1043F000ED52FF4F81818F9380818F93349783811A
:104400008F9382818F9381818F9380818F938C9101
:104410001F928F938DE893E09F938F930E946D2F4F
:10442000E091F606F091F7060FB6F894DEBF0FBEE6
:10443000CDBF80818B3009F0C2C5E153FF4F808131
:104440009181A281B3818F3930E6930730EEA307C3
:10445000B30709F400C1B8F58F3C50E3950750EE5F
:10446000A507B50709F417C2B8F48F3EF0E19F071E
:10447000F0EEAF07BF0709F437C18F3D20E2920786
:1044800020EEA207B20709F454C0873F9840A04E1F
:10449000B04E09F094C5F0C3873B48E4940740EE62
:1044A000A407B40709F4A1C38F3A50E5950750EE6D
:1044B000A507B50709F4A8C18C3B9044A04EB04EA7
:1044C00009F07DC520C48F35F0EA9F07F0EEAF07F5
:1044D000BF0709F477C0B8F4873738E8930730EEA0
:1044E000A307B30709F4ACC28F3640E9940740EE46
:1044F000A407B40709F441C18F389047A04EB04ECD
:1045000009F05DC556C28F32E0ED9E07E0EEAE07C2
:10451000BE0709F423C38F31F0EE9F07AF07BF0733
:1045200009F4D5C28F34904BA04EB04E09F047C568
:10453000F9C12091FC063091FD060F2EF3E0EF2E1D
:10454000F2E0FF2EF02DAA24A394F901E45DFE4FC2
:10455000690143EDC41A4EEFD40A04E610E042E0CC
:104560002BC0BB24B394BA0C8081D6018C9090E010
:104570000196B8010E94D62B682D70E08617970728
:10458000D1F0808190E0BC01660F771F860F971FE6
:10459000D901A80FB91FAC9211964C93119712969E
:1045A0009C92AFB6F894808190E00196B8010E9489
:1045B000D62B8083AFBEAB2CD7019D907D0191108F
:1045C000D0CFFDC42091FC063091FD060F2EFEEBEE
:1045D000EF2EF2E0FF2EF02DAA24A394F901E45D62
:1045E000FE4F6901B3EDCB1ABEEFDB0A04E610E023
:1045F00042E02BC0BB24B394BA0C8081D6018C90CE
:1046000090E00196B8010E94D62B682D70E08617C5
:104610009707D1F0808190E0BC01660F771F860F6D
:10462000971FD901A80FB91FAC9211964C931197FF
:1046300012969C92AFB6F894808190E00196B801F2
:104640000E94D62B8083AFBEAB2CD7019D907D01FD
:104650009110D0CFB4C42091FC063091FD060F2EEE
:10466000FAE7EF2EF2E0FF2EF02DAA24A394F90131
:10467000E45DFE4F6901B3EDCB1ABEEFDB0A04E641
:1046800010E042E02BC0BB24B394BA0C8081D60169
:104690008C9090E00196B8010E94D62B682D70E0B6
:1046A00086179707D1F0808190E0BC01660F771FD5
:1046B000860F971FD901A80FB91FAC9211964C9382
:1046C000119712969C92AFB6F894808190E0019673
:1046D000B8010E94D62B8083AFBEAB2CD7019D9032
:1046E0007D019110D0CF6BC42091FC063091FD0666
:1046F0000F2EF2EFEF2EF1E0FF2EF02DAA24A3945F
:10470000F901E45DFE4F6901B3EDCB1ABEEFDB0AA0
:1047100004E610E042E02BC0BB24B394BA0C8081C5
:10472000D6018C9090E00196B8010E94D62B682D9E
:1047300070E086179707D1F0808190E0BC01660F8A
:10474000771F860F971FD901A80FB91FAC9211963A
:104750004C93119712969C92AFB6F894808190E09A
:104760000196B8010E94D62B8083AFBEAB2CD70137
:104770009D907D019110D0CF22C42091FC063091F4
:10478000FD060F2EFDEAEF2EF2E0FF2EF02DAA24FB
:10479000A394F901E45DFE4F6901B3EDCB1ABEEFBE
:1047A000DB0A04E610E042E029C0BB24B394BA0C53
:1047B0008081D6018C9090E00196B801F7D7682DE2
:1047C00070E086179707C9F0808190E0BC01660F02
:1047D000771F860F971FD901A80FB91FAC921196AA
:1047E0004C93119712969C92AFB6F894808190E00A
:1047F0000196B801DBD78083AFBEAB2CD7019D906B
:104800007D019110D2CFDBC32091FC063091FD06D3
:104810000F2EF9E6EF2EF2E0FF2EF02DAA24A3943E
:10482000F901E45DFE4F6901B3EDCB1ABEEFDB0A7F
:1048300004E610E042E029C0BB24B394BA0C8081A6
:10484000D6018C9090E00196B801B0D7682D70E049
:1048500086179707C9F0808190E0BC01660F771F2B
:10486000860F971FD901A80FB91FAC9211964C93D0
:10487000119712969C92AFB6F894808190E00196C1
:10488000B80194D78083AFBEAB2CD7019D907D013A
:104890009110D2CF94C32091FC063091FD060F2ECB
:1048A000F4E1EF2EF2E0FF2EF02DAA24A394F901FB
:1048B000E45DFE4F6901B3EDCB1ABEEFDB0A04E6FF
:1048C00010E042E029C0BB24B394BA0C8081D60129
:1048D0008C9090E00196B80169D7682D70E086173A
:1048E0009707C9F0808190E0BC01660F771F860FA3
:1048F000971FD901A80FB91FAC9211964C9311972D
:1049000012969C92AFB6F894808190E00196B8011F
:104910004DD78083AFBEAB2CD7019D907D01911008
:10492000D2CF4DC32091FC063091FD060F2EFFEC37
:10493000EF2EF2E0FF2EF02DAA24A394F901E45DFE
:10494000FE4F6901B3EDCB1ABEEFDB0A04E610E0BF
:1049500042E029C0BB24B394BA0C8081D6018C906C
:1049600090E00196B80122D7682D70E0861797076E
:10497000C9F0808190E0BC01660F771F860F971FFA
:10498000D901A80FB91FAC9211964C9311971296AA
:104990009C92AFB6F894808190E00196B80106D75A
:1049A0008083AFBEAB2CD7019D907D019110D2CFFB
:1049B00006C32091FC063091FD060F2EFBE8EF2E7A
:1049C000F2E0FF2EF02DAA24A394F901E45DFE4F3E
:1049D0006901B3EDCB1ABEEFDB0A04E610E042E05A
:1049E00029C0BB24B394BA0C8081D6018C9090E08E
:1049F0000196B801DBD6682D70E086179707C9F0DD
:104A0000808190E0BC01660F771F860F971FD90148
:104A1000A80FB91FAC9211964C93119712969C92C5
:104A2000AFB6F894808190E00196B801BFD680833C
:104A3000AFBEAB2CD7019D907D019110D2CFBFC2EC
:104A40002091FC063091FD060F2EFCE9EF2EF2E0DE
:104A5000FF2EF02DAA24A394F901E45DFE4F690115
:104A6000B3EDCB1ABEEFDB0A04E610E042E029C04A
:104A7000BB24B394BA0C8081D6018C9090E001964F
:104A8000B80194D6682D70E086179707C9F0808129
:104A900090E0BC01660F771F860F971FD901A80F02
:104AA000B91FAC9211964C93119712969C92AFB687
:104AB000F894808190E00196B80178D68083AFBEEB
:104AC000AB2CD7019D907D019110D2CF78C220915F
:104AD000FC063091FD060F2EF1EFEF2EF2E0FF2ED7
:104AE000F02DAA24A394F901E45DFE4F6901B3ED12
:104AF000CB1ABEEFDB0A04E610E042E029C0BB247B
:104B0000B394BA0C8081D6018C9090E00196B801E4
:104B10004DD6682D70E086179707C9F0808190E028
:104B2000BC01660F771F860F971FD901A80FB91F09
:104B3000AC9211964C93119712969C92AFB6F89442
:104B4000808190E00196B80131D68083AFBEAB2C56
:104B5000D7019D907D019110D2CF31C22091FC06EA
:104B60003091FD060F2EF0EEEF2EF2E0FF2EF02D2D
:104B7000AA24A394F901E45DFE4F6901B3EDCB1AB9
:104B8000BEEFDB0A04E610E042E029C0BB24B39488
:104B9000BA0C8081D6018C9090E00196B80106D6BF
:104BA000682D70E086179707C9F0808190E0BC01FE
:104BB000660F771F860F971FD901A80FB91FAC92F8
:104BC00011964C93119712969C92AFB6F8948081EF
:104BD00090E00196B801EAD58083AFBEAB2CD70137
:104BE0009D907D019110D2CFEAC12091FC063091B9
:104BF000FD060F2EF8E5EF2EF2E0FF2EF02DAA2491
:104C0000A394F901E45DFE4F6901B3EDCB1ABEEF49
:104C1000DB0A04E610E042E029C0BB24B394BA0CDE
:104C20008081D6018C9090E00196B801BFD5682DA7
:104C300070E086179707C9F0808190E0BC01660F8D
:104C4000771F860F971FD901A80FB91FAC92119635
:104C50004C93119712969C92AFB6F894808190E095
:104C60000196B801A3D58083AFBEAB2CD7019D9030
:104C70007D019110D2CFA3C12091FC063091FD0699
:104C80000F2EF1EEEF2EF1E0FF2EF02DAA24A394CB
:104C9000F901E45DFE4F6901B3EDCB1ABEEFDB0A0B
:104CA00004E610E042E029C0BB24B394BA0C808132
:104CB000D6018C9090E00196B80178D5682D70E00F
:104CC00086179707C9F0808190E0BC01660F771FB7
:104CD000860F971FD901A80FB91FAC9211964C935C
:104CE000119712969C92AFB6F894808190E001964D
:104CF000B8015CD58083AFBEAB2CD7019D907D0100
:104D00009110D2CF5CC180910601882309F48DC037
:104D10002091FC063091FD060F2EF5E2EF2EF2E019
:104D2000FF2EF02DAA24A394F901E45DFE4F690142
:104D3000B3EDCB1ABEEFDB0A04E610E041E029C078
:104D4000BB24B394BA0C8081D6018C9090E001967C
:104D5000B8012CD5682D70E086179707C9F08081BF
:104D600090E0BC01660F771F860F971FD901A80F2F
:104D7000B91FAC9211964C93119712969C92AFB6B4
:104D8000F894808190E00196B80110D58083AFBE81
:104D9000AB2CD7019D907D019110D2CF2091FC06C4
:104DA0003091FD060F2EF5E2EF2EF2E0FF2EF02DF2
:104DB000AA24A394F901E45DFE4F6901B3EDCB1A77
:104DC000BEEFDB0A04E610E042E029C0BB24B39446
:104DD000BA0C8081D6018C9090E00196B801E6D49F
:104DE000682D70E086179707C9F0808190E0BC01BC
:104DF000660F771F860F971FD901A80FB91FAC92B6
:104E000011964C93119712969C92AFB6F8948081AC
:104E100090E00196B801CAD48083AFBEAB2CD70115
:104E20009D907D019110D2CFCAC02091FC06309197
:104E3000FD060F2EF7E4EF2EF2E0FF2EF02DAA2450
:104E4000A394F901E45DFE4F6901B3EDCB1ABEEF07
:104E5000DB0A04E610E041E029C0BB24B394BA0C9D
:104E60008081D6018C9090E00196B8019FD4682D86
:104E700070E086179707C9F0808190E0BC01660F4B
:104E8000771F860F971FD901A80FB91FAC921196F3
:104E90004C93119712969C92AFB6F894808190E053
:104EA0000196B80183D48083AFBEAB2CD7019D900F
:104EB0007D019110D2CF2091FC063091FD060F2E7E
:104EC000F6E3EF2EF2E0FF2EF02DAA24A394F901D1
:104ED000E45DFE4F6901B3EDCB1ABEEFDB0A04E6D9
:104EE00010E042E029C0BB24B394BA0C8081D60103
:104EF0008C9090E00196B80159D4682D70E0861727
:104F00009707C9F0808190E0BC01660F771F860F7C
:104F1000971FD901A80FB91FAC9211964C93119706
:104F200012969C92AFB6F894808190E00196B801F9
:104F30003DD48083AFBEAB2CD7019D907D019110F5
:104F4000D2CF3DC0E090F606F090F706F7018081E1
:104F50001F928F938DE993E09F938F93BED7D701D4
:104F600012968C910F900F900F900F90882301F163
:104F700000E010E00F2EF1EACF2EF3E0DF2EF02D4F
:104F8000F801EE0FFF1FEE0DFF1D838194819F93AB
:104F90008F93DF92CF92A1D70F5F1F4FF7018281CE
:104FA00090E00F900F900F900F900817190744F39F
:104FB0008AE993E09F938F9390D70F900F90E091A1
:104FC000E906F091EA068081823079F018F48130A8
:104FD00031F02DC08330A1F08430C1F028C012BE62
:104FE00080E281BF89E083BF22C01FBC1EBC1DBC04
:104FF0001CBC80E293E09BBD8ABD89E08EBD17C0DA
:1050000014BC80E283BD89E085BD11C010928B0085
:10501000EAE8F0E01082109289001092880080E2A5
:1050200093E0909387008093860089E08083E091ED
:10503000EB06F091EC061082E091EB06F091EC06A5
:105040001182E091EB06F091EC061282E553FF4FDE
:1050500011821082E091E906F091EA0680818230A7
:1050600011F4BC9801C01298E091E906F091EA06AB
:1050700080818230B1F020F4813041F00C94F2163E
:105080008330D1F0843019F10C94F21685EB94E062
:105090009093E6068093E50687B7826087BF0C94FD
:1050A000F21685EB94E09093E4068093E30687B7CD
:1050B000806187BF0C94F21685EB94E09093E20632
:1050C0008093E10687B7806887BF0C94F21685EB62
:1050D00094E09093E0068093DF06EDE7F0E08081B6
:1050E000806180830C94F2168091DD06E091D906F0
:1050F000F091DA06E80FF11D80818CB92FB7F89492
:105100008091DD0690E001968F7790788093DD06A0
:105110002FBF0C94021B8091D506E091D106F0912F
:10512000D206E80FF11D808180939C002FB7F89480
:105130008091D50690E001968F7790788093D50680
:105140002FBF0C940E1B45E050E065EA73E0C301ED
:1051500064D6892B11F40C94EF1E43E050E06EEA04
:1051600073E0C3015AD6892B11F40C94511F46E009
:1051700050E06BEA73E0C30150D6892B11F40C9414
:10518000871FC3010E94D70D811166C80C94BD1FF3
:1051900042E050E062EB73E0C3013FD6892B09F097
:1051A0001EC80C94CB201092F7061092F6060C94B1
:1051B000F21682818430D1F46CC88185928509977A
:1051C0000997A0F4DF01AD52BF4F1D921C924FEF23
:1051D0005FEFBA019F0121533F4FD9014D935D937A
:1051E0006D937C93139781E08083F9C88281843426
:1051F00008F056C830C0A9014F5F5F4FBA01660F73
:10520000771F6E0F7F1FDB0113966D917C911497B2
:10521000665171096131710558F4D701C601880FD3
:10522000991FAA1FBB1F6C017D016894C0F855C867
:10523000440F551F4E0F5F1FDA0113964D915C917D
:105240001497465051094730510528F4CC0CDD1C09
:10525000EE1CFF1C42C885819681895791098335D0
:10526000910508F048C08281893308F04EC843C0D8
:10527000A9014F5F5F4FBA01660F771F6E0F7F1F47
:10528000DB0113966D917C91149766517109613120
:10529000710558F4D701C601880F991FAA1FBB1FBB
:1052A0006C017D016894C0F84CC8440F551F4E0F27
:1052B0005F1FDA0113964D915C9114974650510986
:1052C00047305105C0F4CC0CDD1CEE1CFF1C39C866
:1052D0004CE150E09F012D523F4FD9014D935C931B
:1052E00024503109D901CD92DD92ED92FC921397B1
:1052F0008CE0808374C8858196818C549109C59710
:1053000008F020CE82818430D1F430C88185928526
:1053100009970997A0F4DF01AD52BF4F1D921C926F
:105320004FEF5FEFBA019F0121533F4FD9014D93DA
:105330005D936D937C9313978BE0808350C882813B
:10534000843408F01AC8FECDA9014F5F5F4FBA013F
:10535000660F771F6E0F7F1FDB0113966D917C9197
:105360001497665171096131710558F4D701C6016E
:10537000880F991FAA1FBB1F6C017D016894C0F89C
:1053800019C8440F551F4E0F5F1FDA0113964D9138
:105390005C911497465051094730510508F0D2CD21
:1053A000CC0CDD1CEE1CFF1C05C840E250E09F0148
:1053B0002D523F4FD9014D935C9324503109D901AF
:1053C000CD92DD92ED92FC9213978BE0808307C81B
:1053D00001E001C002E0112707FD10950C94AD1EFD
:1053E0005058BB27AA270ED01CC10DD130F012D1C6
:1053F00020F031F49F3F11F41EF402C10EF4E09549
:10540000E7FBF8C0E92F1ED180F3BA1762077307D4
:105410008407950718F071F49EF536C10EF4E095F7
:105420000B2EBA2FA02D0B01B90190010C01CA015E
:10543000A0011124FF27591B99F0593F50F4503E09
:1054400068F11A16F040A22F232F342F4427585FFB
:10545000F3CF469537952795A795F0405395C9F713
:105460007EF41F16BA0B620B730B840BBAF09150CB
:10547000A1F0FF0FBB1F661F771F881FC2F70EC06A
:10548000BA0F621F731F841F48F48795779567953D
:10549000B795F7959E3F08F0B3CF9395880F08F026
:1054A0009927EE0F9795879508950CD0BAC0B2D082
:1054B00040F0A9D030F021F45F3F19F09BC05111AA
:1054C000E4C09EC0BFD098F39923C9F35523B1F32C
:1054D000951B550BBB27AA2762177307840738F063
:1054E0009F5F5F4F220F331F441FAA1FA9F333D0C2
:1054F0000E2E3AF0E0E830D091505040E695001C76
:10550000CAF729D0FE2F27D0660F771F881FBB1F31
:10551000261737074807AB07B0E809F0BB0B802D0B
:10552000BF01FF2793585F4F2AF09E3F510568F057
:1055300061C0ABC05F3FECF3983EDCF38695779596
:105540006795B795F7959F5FC9F7880F911D969559
:10555000879597F90895E1E0660F771F881FBB1FB5
:10556000621773078407BA0720F0621B730B840B62
:10557000BA0BEE1F88F7E0950895E89409C097FBF1
:105580003EF490958095709561957F4F8F4F9F4F1A
:105590009923A9F0F92F96E9BB279395F69587955E
:1055A00077956795B795F111F8CFFAF4BB0F11F421
:1055B00060FF1BC06F5F7F4F8F4F9F4F16C08823C8
:1055C00011F096E911C0772321F09EE8872F762FFE
:1055D00005C0662371F096E8862F70E060E02AF03F
:1055E0009A95660F771F881FDAF7880F969587952B
:1055F00097F9089597F99F6780E870E060E0089553
:105600009FEF80EC089500240A94161617061806DA
:105610000906089500240A941216130614060506B6
:105620000895092E0394000C11F4882352F0BB0F47
:1056300040F4BF2B11F460FF04C06F5F7F4F8F4FAA
:105640009F4F089557FD9058440F551F59F05F3FE5
:1056500071F04795880F97FB991F61F09F3F79F094
:1056600087950895121613061406551FF2CF469516
:10567000F1DF08C0161617061806991FF1CF869598
:105680007105610508940895E894BB27662777277C
:10569000CB0197F9089566D008F48FEF08950BD0E9
:1056A000C0CFB1DF28F0B6DF18F0952309F0A2CF04
:1056B000A7CF1124EACFC6DFA0F3959FD1F3950FB2
:1056C00050E0551F629FF001729FBB27F00DB11D86
:1056D000639FAA27F00DB11DAA1F649F6627B00D16
:1056E000A11D661F829F2227B00DA11D621F739FFF
:1056F000B00DA11D621F839FA00D611D221F749F0D
:105700003327A00D611D231F849F600D211D822F53
:10571000762F6A2F11249F5750408AF0E1F088239A
:105720004AF0EE0FFF1FBB1F661F771F881F9150A7
:105730005040A9F79E3F510570F05CCFA6CF5F3F68
:10574000ECF3983EDCF3869577956795B795F795DA
:10575000E7959F5FC1F7FE2B880F911D9695879562
:1057600097F90895990F0008550FAA0BE0E8FEEF8E
:1057700016161706E807F907C0F012161306E40715
:10578000F50798F0621B730B840B950B39F40A260E
:1057900061F0232B242B252B21F408950A2609F4EC
:1057A000A140A6958FEF811D811D089597FB072EBF
:1057B00016F4009406D077FD08D033D007FC05D04E
:1057C0003EF4909581959F4F0895709561957F4F18
:1057D0000895052E97FB16F400940FD057FD05D0C1
:1057E00034D007FC02D046F408C05095409530955F
:1057F00021953F4F4F4F5F4F08959095809570953D
:1058000061957F4F8F4F9F4F089541D0B7FF089507
:10581000821B930B0895B7FF49C048D0821B930B9E
:105820000895AA1BBB1B51E107C0AA1FBB1FA617E7
:10583000B70710F0A61BB70B881F991F5A95A9F739
:1058400080959095BC01CD010895A1E21A2EAA1B66
:10585000BB1BFD010DC0AA1FBB1FEE1FFF1FA21720
:10586000B307E407F50720F0A21BB30BE40BF50B1D
:10587000661F771F881F991F1A9469F760957095A6
:10588000809590959B01AC01BD01CF010895A29F29
:10589000B001B39FC001A39F700D811D1124911D04
:1058A000B29F700D811D1124911D0895F0DFA59FF9
:1058B000900DB49F900DA49F800D911D112408950B
:1058C000EF920F931F93CF93DF93E80147FF02C03E
:1058D00034E101C034E0E42FFF27E7FDF095F7FF46
:1058E00003C0F195E195F109E32E022F2E2FAE01B1
:1058F0003AD5CE01DF91CF911F910F91EF9008958E
:10590000CF93DF938230910510F482E090E0E09134
:105910000007F091010720E030E0A0E0B0E0309710
:1059200039F14081518148175907B8F04817590794
:1059300071F482819381109729F013969C938E9332
:1059400012972CC0909301078093000727C0211560
:10595000310531F04217530718F0A901DB0101C0EE
:10596000EF019A01BD01DF010280F381E02DD7CF65
:1059700021153105F9F0281B390B2430310580F44D
:105980008A819B816115710521F0FB0193838283DC
:1059900004C09093010780930007FE01329644C033
:1059A000FE01E20FF31F8193919322503109398355
:1059B00028833AC02091FE063091FF06232B41F444
:1059C00020910201309103013093FF062093FE06DF
:1059D00020910001309101012115310541F42DB7CD
:1059E0003EB74091040150910501241B350BE09115
:1059F000FE06F091FF06E217F307A0F42E1B3F0B03
:105A00002817390778F0AC014E5F5F4F2417350730
:105A100048F04E0F5F1F5093FF064093FE068193A0
:105A2000919302C0E0E0F0E0CF01DF91CF910895C3
:105A3000CF93DF93009709F487C0FC01329713825C
:105A40001282C0910007D0910107209781F4208134
:105A50003181280F391F8091FE069091FF06821731
:105A6000930779F5F093FF06E093FE066DC0DE0123
:105A700020E030E0AE17BF0750F412964D915C91D4
:105A800013979D014115510509F1DA01F3CFB38355
:105A9000A28340815181840F951F8A179B0771F45F
:105AA0008D919C911197840F951F0296918380830D
:105AB00012968D919C9113979383828321153105C2
:105AC00029F4F0930107E09300073EC0D901139633
:105AD000FC93EE9312974D915D91A40FB51FEA17B9
