:10000000C2C00000DFC00000DDC00000DBC0000097
:10001000D9C00000D7C00000D5C00000D3C0000088
:10002000D1C0000060C10000CDC00000CBC0000006
:100030002DC10000C7C00000C5C00000FAC000000C
:10004000C1C00000BFC00000A8C10000BBC00000CC
:10005000B9C00000B7C00000B5C00000B3C00000C8
:10006000B1C00000AFC000006BC10000ABC0000019
:10007000A9C00000A7C00000C9C10000A3C00000C3
:10008000A1C000009FC000009DC0000000407A1089
:10009000F35A00A0724E18090010A5D4E80000E839
:1000A0007648170000E40B54020000CA9A3B000097
:1000B00000E1F505000080969800000040420F0026
:1000C0000000A08601000000102700000000E803E7
:1000D000000000006400000000000A0000000000B2
:1000E0000100000000002C76D888DC674F0823DF71
:1000F000C1DFAE59E1B1B796E5E3E453C63AE65144
:10010000997696E8E6C28426EB898C9B62ED407C6A
:100110006FFCEFBC9C9F40F2BAA56FA5F490055A06
:100120002AF75C936B6CF9676DC11BFCE0E40D472B
:10013000FEF520E6B500D0ED902E0300943577054E
:100140000080841E080000204E0A000000C80C3306
:100150003333330F986E12831141EF8D2114893B95
:10016000E65516CFFEE6DB18D1844B381BF77C1D15
:10017000901DA4BBE424203284725E228100C9F168
:1001800024ECA1E53D2711241FBECFEFD0E1DEBF57
:10019000CDBF14E0A0E0B1E0EAEBF3E700E00BBF75
:1001A00002C007900D92A230B107D9F727E0A2E074
:1001B000B4E001C01D92A835B207E1F70E94841B8C
:1001C0000C94DB391DCF0C9493310895853360F482
:1001D000869586958695E82FF0E0EE0FFF1FE25A90
:1001E000FE4F80819181089580E090E008958533ED
:1001F00060F4869586958695E82FF0E0EE0FFF1F58
:10020000E05BFE4F80819181089580E090E0089549
:10021000853360F4869586958695E82FF0E0EE0F9D
:10022000FF1FEE5BFE4F80819181089580E090E09A
:1002300008951F920F920FB60F9211240BB60F92D2
:100240002F933F934F935F936F937F938F939F93DE
:10025000AF93BF93EF93FF93E0913107F091320793
:10026000309709F00995FF91EF91BF91AF919F9160
:100270008F917F916F915F914F913F912F910F904F
:100280000BBE0F900FBE0F901F9018951F920F92EC
:100290000FB60F9211240BB60F922F933F934F93EB
:1002A0005F936F937F938F939F93AF93BF93EF93DE
:1002B000FF93E0912F07F0913007309709F00995EF
:1002C000FF91EF91BF91AF919F918F917F916F912E
:1002D0005F914F913F912F910F900BBE0F900FBEEA
:1002E0000F901F9018951F920F920FB60F92112426
:1002F0000BB60F922F933F934F935F936F937F9320
:100300008F939F93AF93BF93EF93FF93E0912D074C
:10031000F0912E07309709F00995FF91EF91BF9169
:10032000AF919F918F917F916F915F914F913F918D
:100330002F910F900BBE0F900FBE0F901F9018952E
:100340001F920F920FB60F9211240BB60F922F939C
:100350003F934F935F936F937F938F939F93AF934D
:10036000BF93EF93FF93E0912B07F0912C07309709
:1003700009F00995FF91EF91BF91AF919F918F91F6
:100380007F916F915F914F913F912F910F900BBE95
:100390000F900FBE0F901F9018951F920F920FB6DF
:1003A0000F9211240BB60F922F933F938F939F932D
:1003B000EF93FF93209128078091270730E02F5F6C
:1003C0003F4F2F77307890E02817390791F09091C0
:1003D00028078CB1E0912307F0912407E90FF11D64
:1003E00080838091280790E001968F7790788093A2
:1003F0002807FF91EF919F918F913F912F910F903F
:100400000BBE0F900FBE0F901F9018951F920F926A
:100410000FB60F9211240BB60F922F933F938F9329
:100420009F93EF93FF932091200780911F0730E067
:100430002F5F3F4F2F77307890E02817390799F0DA
:100440009091200780919C00E0911B07F0911C0780
:10045000E90FF11D80838091200790E001968F774E
:10046000907880932007FF91EF919F918F913F911A
:100470002F910F900BBE0F900FBE0F901F901895ED
:10048000CF93C62F8091370790913807892B09F0B9
:1004900063C085ED90E097DE90933807809337072F
:1004A0008091330790913407009729F09093360795
:1004B0008093350751C081E090E085DEFC01108219
:1004C000C230A1F018F4C13031F042C0C330E9F0BD
:1004D000C43031F13DC023B72770D1F512BE20E200
:1004E00021BF23B7207F296023BF30C02EB52770DE
:1004F00079F51DBC1CBC20E233E03BBD2ABD1FBC0E
:100500002EB5207F29602EBD21C025B5277001F5AD
:1005100014BC20E223BD25B5207F296025BD16C06F
:1005200020918A002770A1F410928900109288000F
:1005300020E233E0309387002093860010928B00F6
:10054000EAE8F0E02081207F29602083FC01C0835D
:100550009093360780933507CF910895CF93C62F98
:100560008091350790913607009729F090933407D2
:100570008093330751C081E090E025DEFC011082BA
:10058000C230A1F018F4C13031F042C0C330E9F0FC
:10059000C43031F13DC023B72770D1F512BE20E23F
:1005A00021BF23B7207F296023BF30C02EB527701D
:1005B00079F51DBC1CBC20E233E03BBD2ABD1FBC4D
:1005C0002EB5207F29602EBD21C025B5277001F5ED
:1005D00014BC20E223BD25B5207F296025BD16C0AF
:1005E00020918A002770A1F410928900109288004F
:1005F00020E233E0309387002093860010928B0036
:10060000EAE8F0E02081207F29602083FC01C0839C
:100610009093340780933307CF910895E0911507A5
:10062000F0911607309709F49EC09081913009F03F
:1006300046C020912A0790912907291305C05D9B88
:1006400028C08CB990E0089540912A07209129078D
:1006500050E04F5F5F4F4F77507830E042175307BD
:10066000C1F45D9BFECF90912907E0912507F091A1
:100670002607E90FF11D90819CB99FB7F89420914E
:10068000290730E02F5F3F4F2F77307820932907DD
:100690009FBF90912A07E0912507F0912607E90F67
:1006A000F11D80839FB7F89420912A0730E02F5FD7
:1006B0003F4F2F77307820932A079FBF4FC092304B
:1006C00009F04EC02091220790912107291308C0FC
:1006D00090919B0095FF2DC080939C0090E0089521
:1006E000409122072091210750E04F5F5F4F4F77E5
:1006F000507830E042175307E1F4EBE9F0E09081E5
:1007000095FFFDCF90912107E0911D07F0911E0705
:10071000E90FF11D908190939C009FB7F894209170
:10072000210730E02F5F3F4F2F773078209321074C
:100730009FBF90912207E0911D07F0911E07E90FDE
:10074000F11D80839FB7F8942091220730E02F5F3E
:100750003F4F2F773078209322079FBF90E0089576
:1007600080E090E008958FEF9FEF08950F931F931F
:10077000CF93DF938091150790911607892B09F489
:10078000ABC0ABE9B0E0CCE9D0E043EE56E061EBC2
:1007900076E07BC05F9BFECF8CB190E032C0809151
:1007A0002707E0912307F0912407E80FF11D8081CE
:1007B0009FB7F8942091270730E02F5F3F4F2F77A6
:1007C0003078209327079FBF1BC08C918823ECF7BC
:1007D000888190E016C080911F07E0911B07F0917F
:1007E0001C07E80FF11D80819FB7F89420911F0727
:1007F00030E02F5F3F4F2F77307820931F079FBF48
:1008000090E08A30910521F5E0914001F09141019D
:100810008091AD069091AE06E80FF91F108280918D
:100820004001909141019093B0068093AF06835EA2
:10083000964019F4962F872F02C0942F852F9093FE
:100840004001809341011092AE061092AD061DC08A
:100850002091AD063091AE062033310594F48D30F1
:10086000910599F0E0914001F091410189010F5FFC
:100870001F4F1093AE060093AD06E20FF31F808367
:1008800004C01092AE061092AD06E0911507F091EB
:1008900016078081813079F490912707809128078D
:1008A0009817D1F08091270790912707809128070A
:1008B000981375CF6FCF823079F490911F07809194
:1008C0002007981749F080911F0790911F0780918A
:1008D0002007981380CF79CFDF91CF911F910F918F
:1008E00008958091370590913805019690933805C9
:1008F0008093370520913E0130913F018217930785
:1009000059F4E0913505F0913605908180913405D8
:100910008095892380830895883C910559F4E0915E
:100920003505F091360580913405808310923805A5
:1009300010923705089580912E0590912F05A09172
:100940003005B09131050196A11DB11D803823E31A
:10095000920721EEA20721E0B2074CF480932E0506
:1009600090932F05A0933005B093310508C01092E5
:100970002E0510922F05109230051092310581E05E
:1009800080932B050895CF93DF93E0913507F09185
:1009900036078081823051F486B384FB222720F908
:1009A00084FF02C0C39A0BC0C39809C081B182FB07
:1009B000222720F982FF02C01F9A01C01F98E091F0
:1009C0003707F0913807DF01A553BF4F8D919C91F8
:1009D0001197019611969C938E938281843610F024
:1009E00083E08183E0913707F0913807818181307E
:1009F00079F138F0823009F445C0833009F466C0DB
:100A00006BC0211169C0DF01A553BF4F8D919C912F
:100A100011978436910520F4FD01118210825CC08B
:100A20001282C28181E08C0F8283D0E0DF01A55366
:100A3000BF4F8D919C911197CC0FDD1FCE0FDF1F03
:100A40009C838B8311961C921E9281E0818344C00B
:100A5000213009F041C0C28181E08C0F8283D0E057
:100A6000DF01A553BF4F8D919C911197CC0FDD1FD6
:100A7000CE0FDF1F9C838B8311961C921E9282E007
:100A800081832AC0211117C0C28181E08C0F82832B
:100A9000D0E0DF01A553BF4F8D919C911197CC0FF2
:100AA000DD1FCE0FDF1F9C838B8311961C921E923D
:100AB00081E0818311C0DF01A553BF4F8D919C91CF
:100AC0008536910548F083E0818306C0211104C07A
:100AD000E553FF4F11821082DF91CF9108958091ED
:100AE0003E0790913F071816190634F4019790932A
:100AF0003F0780933E07089580913D078823A1F02A
:100B000010923D0720913B0730913C0784E090E034
:100B1000821B930B90933F0780933E07E2E6F0E041
:100B200080818E7F8083089581E080933D0780914E
:100B30003B0790913C0790933F0780933E07E2E686
:100B4000F0E08081816080830895E0911507F09145
:100B50001607309709F44FC08081813009F59091D4
:100B6000270780912807981305C05F9BFECF8CB1A3
:100B700090E0089580912707E0912307F0912407E2
:100B8000E80FF11D80819FB7F8942091270730E08E
:100B90002F5F3F4F2F773078209327079FBF26C0C6
:100BA000823031F590911F0780912007981309C07A
:100BB000EBE9F0E080818823ECF780919C0090E0E5
:100BC000089580911F07E0911B07F0911C07E80F23
:100BD000F11D80819FB7F89420911F0730E02F5FAF
:100BE0003F4F2F77307820931F079FBF90E00895E5
:100BF0008FEF9FEF08958FEF9FEF0895CF93DF93CF
:100C0000CDB7DEB7C058D1090FB6F894DEBF0FBE1E
:100C1000CDBFFC01E15DFE4F10823197108231970C
:100C20001082319710822CE1209364002FEF2ABBB1
:100C3000349620812F70208320936500C158DF4FA8
:100C400019821882CF57D040C158DF4F288139818F
:100C5000CF57D040121613069CF1EF961FAE1EAE72
:100C6000EF97EF962EAD3FADEF97263031058CF420
:100C7000EF962EAD3FADEF972F5F3F4FEF963FAF13
:100C80002EAFEF97EF962EAD3FADEF9726303105A3
:100C90007CF3C158DF4F28813981CF57D0402F5F77
:100CA0003F4FC158DF4F39832883CF57D040C158B9
:100CB000DF4F28813981CF57D040121613066CF6CA
:100CC000FC01E05DFE4F20812B71208320936500A5
:100CD000ED961FAE1EAEED97ED962EAD3FADED97A6
:100CE000121613066CF1EB961FAE1EAEEB97EB9649
:100CF0002EAD3FADEB97263031058CF4EB962EAD43
:100D00003FADEB972F5F3F4FEB963FAF2EAFEB978B
:100D1000EB962EAD3FADEB97263031057CF3ED968B
:100D20002EAD3FADED972F5F3F4FED963FAF2EAF0E
:100D3000ED97ED962EAD3FADED97121613069CF68E
:100D4000FC01E05DFE4F2081277120832093650028
:100D5000E9961FAE1EAEE997E9962EAD3FADE99735
:100D6000121613066CF1E7961FAE1EAEE797E796D4
:100D70002EAD3FADE797263031058CF4E7962EADCA
:100D80003FADE7972F5F3F4FE7963FAF2EAFE79717
:100D9000E7962EAD3FADE797263031057CF3E99617
:100DA0002EAD3FADE9972F5F3F4FE9963FAF2EAF96
:100DB000E997E9962EAD3FADE997121613069CF61A
:100DC000FC01E05DFE4F20812061208320936500BF
:100DD000E5961FAE1EAEE597E5962EAD3FADE597C5
:100DE000121613066CF1E3961FAE1EAEE397E39660
:100DF0002EAD3FADE397263031058CF4E3962EAD52
:100E00003FADE3972F5F3F4FE3963FAF2EAFE397A2
:100E1000E3962EAD3FADE397263031057CF3E596A2
:100E20002EAD3FADE5972F5F3F4FE5963FAF2EAF1D
:100E3000E597E5962EAD3FADE597121613069CF6A5
:100E400028E32BBBE1961FAE1EAEE197E1962EADD7
:100E50003FADE197121613066CF1AF961FAE1EAEB2
:100E6000AF97AF962EAD3FADAF97263031058CF4DE
:100E7000AF962EAD3FADAF972F5F3F4FAF963FAFD1
:100E80002EAFAF97AF962EAD3FADAF972630310561
:100E90007CF3E1962EAD3FADE1972F5F3F4FE1969A
:100EA0003FAF2EAFE197E1962EAD3FADE197121621
:100EB00013069CF6FC01E05DFE4F20812F7020831D
:100EC00020936500AD961FAE1EAEAD97AD962EADCC
:100ED0003FADAD97121613066CF1AB961FAE1EAE6A
:100EE000AB97AB962EAD3FADAB97263031058CF46A
:100EF000AB962EAD3FADAB972F5F3F4FAB963FAF5D
:100F00002EAFAB97AB962EAD3FADAB9726303105EC
:100F10007CF3AD962EAD3FADAD972F5F3F4FAD96B5
:100F20003FAF2EAFAD97AD962EAD3FADAD9712163C
:100F300013069CF6FC01E05DFE4F20812F7020839C
:100F400020936500A9961FAE1EAEA997A9962EAD57
:100F50003FADA997121613066CF1A7961FAE1EAEF1
:100F6000A797A7962EAD3FADA797263031058CF4F5
:100F7000A7962EAD3FADA7972F5F3F4FA7963FAFE8
:100F80002EAFA797A7962EAD3FADA7972630310578
:100F90007CF3A9962EAD3FADA9972F5F3F4FA99641
:100FA0003FAF2EAFA997A9962EAD3FADA9971216C8
:100FB00013069CF6FC01E05DFE4F20812B7120831F
:100FC00020936500A5961FAE1EAEA597A5962EADE3
:100FD0003FADA597121613066CF1A3961FAE1EAE79
:100FE000A397A3962EAD3FADA397263031058CF481
:100FF000A3962EAD3FADA3972F5F3F4FA3963FAF74
:101000002EAFA397A3962EAD3FADA3972630310503
:101010007CF3A5962EAD3FADA5972F5F3F4FA596CC
:101020003FAF2EAFA597A5962EAD3FADA597121653
:1010300013069CF6FC01E05DFE4F208127712083A2
:1010400020936500A1961FAE1EAEA197A1962EAD6E
:101050003FADA197121613066CF16F961FAE1EAE30
:101060006F976F962EAD3FAD6F97263031058CF49C
:101070006F962EAD3FAD6F972F5F3F4F6F963FAF8F
:101080002EAF6F976F962EAD3FAD6F97263031051F
:101090007CF3A1962EAD3FADA1972F5F3F4FA19658
:1010A0003FAF2EAFA197A1962EAD3FADA1971216DF
:1010B00013069CF6FC01E05DFE4F20812061208339
:1010C000209365006D961FAE1EAE6D976D962EAD8A
:1010D0003FAD6D97121613066CF16B961FAE1EAEE8
:1010E0006B976B962EAD3FAD6B97263031058CF428
:1010F0006B962EAD3FAD6B972F5F3F4F6B963FAF1B
:101100002EAF6B976B962EAD3FAD6B9726303105AA
:101110007CF36D962EAD3FAD6D972F5F3F4F6D9673
:101120003FAF2EAF6D976D962EAD3FAD6D971216FA
:1011300013069CF62EE02BBB69961FAE1EAE699778
:1011400069962EAD3FAD6997121613066CF167963E
:101150001FAE1EAE679767962EAD3FAD67972630E0
:1011600031058CF467962EAD3FAD67972F5F3F4FEB
:1011700067963FAF2EAF679767962EAD3FAD6797E7
:10118000263031057CF369962EAD3FAD69972F5F10
:101190003F4F69963FAF2EAF699769962EAD3FAD31
:1011A0006997121613069CF6FC01E05DFE4F208144
:1011B0002F7020832093650065961FAE1EAE659745
:1011C00065962EAD3FAD6597121613066CF16396CA
:1011D0001FAE1EAE639763962EAD3FAD639726306C
:1011E00031058CF463962EAD3FAD63972F5F3F4F73
:1011F00063963FAF2EAF639763962EAD3FAD639777
:10120000263031057CF365962EAD3FAD65972F5F97
:101210003F4F65963FAF2EAF659765962EAD3FADBC
:101220006597121613069CF6FC01E05DFE4F2081C7
:101230002F7020832093650061961FAE1EAE6197CC
:1012400061962EAD3FAD6197121613066CF12F9685
:101250001FAE1EAE2F972F962EAD3FAD2F97263087
:1012600031058CF42F962EAD3FAD2F972F5F3F4F5A
:101270002F963FAF2EAF2F972F962EAD3FAD2F97C6
:10128000263031057CF361962EAD3FAD61972F5F1F
:101290003F4F61963FAF2EAF619761962EAD3FAD48
:1012A0006197121613069CF6FC01E05DFE4F20814B
:1012B0002B712083209365002D961FAE1EAE2D97B7
:1012C0002D962EAD3FAD2D97121613066CF12B9671
:1012D0001FAE1EAE2B972B962EAD3FAD2B97263013
:1012E00031058CF42B962EAD3FAD2B972F5F3F4FE2
:1012F0002B963FAF2EAF2B972B962EAD3FAD2B9756
:10130000263031057CF32D962EAD3FAD2D972F5F06
:101310003F4F2D963FAF2EAF2D972D962EAD3FAD63
:101320002D97121613069CF6FC01E05DFE4F2081FE
:10133000277120832093650029961FAE1EAE299742
:1013400029962EAD3FAD2997121613066CF12796FC
:101350001FAE1EAE279727962EAD3FAD279726309E
:1013600031058CF427962EAD3FAD27972F5F3F4F69
:1013700027963FAF2EAF279727962EAD3FAD2797E5
:10138000263031057CF329962EAD3FAD29972F5F8E
:101390003F4F29963FAF2EAF299729962EAD3FADEF
:1013A0002997121613069CF6FC01E05DFE4F208182
:1013B000206120832093650025961FAE1EAE2597E1
:1013C00025962EAD3FAD2597121613066CF1239688
:1013D0001FAE1EAE239723962EAD3FAD239726302A
:1013E00031058CF423962EAD3FAD23972F5F3F4FF1
:1013F00023963FAF2EAF239723962EAD3FAD239775
:10140000263031057CF325962EAD3FAD25972F5F15
:101410003F4F25963FAF2EAF259725962EAD3FAD7A
:101420002597121613069CF626E02BBB21961FAEBD
:101430001EAE219721962EAD3FAD219712161306B1
:101440001CF11EAE1DAE2DAD3EAD263031055CF457
:101450002DAD3EAD2F5F3F4F3EAF2DAF2DAD3EAD1D
:1014600026303105ACF321962EAD3FAD21972F5F8D
:101470003F4F21963FAF2EAF219721962EAD3FAD26
:10148000219712161306ECF6FC01E05DFE4F208159
:101490002F702083209365001CAE1BAE2BAD3CAD9E
:1014A00012161306ECF01AAE19AE29AD3AAD26307D
:1014B00031055CF429AD3AAD2F5F3F4F3AAF29AF0C
:1014C00029AD3AAD26303105ACF32BAD3CAD2F5FE5
:1014D0003F4F3CAF2BAF2BAD3CAD121613061CF7A4
:1014E000FC01E05DFE4F20812F702083209365007A
:1014F00018AE1FAA2FA938AD12161306ECF01EAABB
:101500001DAA2DA93EA9263031055CF42DA93EA9BE
:101510002F5F3F4F3EAB2DAB2DA93EA926303105A5
:10152000ACF32FA938AD2F5F3F4F38AF2FAB2FA9AA
:1015300038AD121613061CF7FC01E05DFE4F20814A
:101540002B712083209365001CAA1BAA2BA93CA900
:1015500012161306ECF01AAA19AA29A93AA92630DC
:1015600031055CF429A93AA92F5F3F4F3AAB29AB6B
:1015700029A93AA926303105ACF32BA93CA92F5F44
:101580003F4F3CAB2BAB2BA93CA9121613061CF703
:10159000FC01E05DFE4F20812771208320936500D0
:1015A00018AA1FA62FA538A912161306ECF01EA61E
:1015B0001DA62DA53EA5263031055CF42DA53EA522
:1015C0002F5F3F4F3EA72DA72DA53EA52630310505
:1015D000ACF32FA538A92F5F3F4F38AB2FA72FA50E
:1015E00038A9121613061CF7FC01E05DFE4F20819E
:1015F00020612083209365001CA61BA62BA53CA57B
:1016000012161306ECF01AA619A629A53AA526303B
:1016100031055CF429A53AA52F5F3F4F3AA729A7CA
:1016200029A53AA526303105ACF32BA53CA52F5FA3
:101630003F4F3CA72BA72BA53CA5121613061CF762
:1016400021E02BBB18A61FA22FA138A51216130646
:10165000ECF01EA21DA22DA13EA1263031055CF4A6
:101660002DA13EA12F5F3F4F3EA32DA32DA13EA153
:1016700026303105ACF32FA138A52F5F3F4F38A797
:101680002FA32FA138A5121613061CF7FC01E05D4D
:10169000FE4F20812F702083209365001CA21BA287
:1016A0002BA13CA112161306ECF01AA219A229A133
:1016B0003AA1263031055CF429A13AA12F5F3F4FB2
:1016C0003AA329A329A13AA126303105ACF32BA1D5
:1016D0003CA12F5F3F4F3CA32BA32BA13CA1121693
:1016E00013061CF718A21F8E2F8D38A12436310542
:1016F000ECF41E8E1D8E2D8D3E8D263031055CF452
:101700002D8D3E8D2F5F3F4F3E8F2D8F2D8D3E8D2A
:1017100026303105ACF32F8D38A12F5F3F4F38A312
:101720002F8F2F8D38A1243631051CF3FC01E05D8D
:10173000FE4F20812F702083209365001C8E1B8E0E
:101740002B8D3C8D12161306ECF01A8E198E298DF6
:101750003A8D263031055CF4298D3A8D2F5F3F4F4D
:101760003A8F298F298D3A8D26303105ACF32B8D98
:101770003C8D2F5F3F4F3C8F2B8F2B8D3C8D121656
:1017800013061CF7FC01E05DFE4F20812B712083C6
:1017900020936500188E1F8A2F89388D1216130624
:1017A000ECF01E8A1D8A2D893E89263031055CF4B5
:1017B0002D893E892F5F3F4F3E8B2D8B2D893E8992
:1017C00026303105ACF32F89388D2F5F3F4F388F8E
:1017D0002F8B2F89388D121613061CF7FC01E05D44
:1017E000FE4F208127712083209365001C8A1B8A6D
:1017F0002B893C8912161306ECF01A8A198A29895A
:101800003A89263031055CF429893A892F5F3F4FA8
:101810003A8B298B29893A8926303105ACF32B89FB
:101820003C892F5F3F4F3C8B2B8B2B893C891216B9
:1018300013061CF7FC01E05DFE4F20812061208330
:1018400020936500188A1F862F8538891216130683
:10185000ECF01E861D862D853E85263031055CF414
:101860002D853E852F5F3F4F3E872D872D853E85F9
:1018700026303105ACF32F8538892F5F3F4F388BE9
:101880002F872F853889121613061CF722E02BBBF1
:101890001C861B862B853C8512161306ECF01A86D7
:1018A000198629853A85263031055CF429853A85E3
:1018B0002F5F3F4F3A87298729853A8526303105A2
:1018C000ACF32B853C852F5F3F4F3C872B872B85C7
:1018D0003C85121613061CF7FC01E05DFE4F80816B
:1018E0008F7080838093650018861F828F81988512
:1018F00018161906CCF01E821D828D819E810697D6
:101900004CF48D819E8101969E838D838D819E8175
:101910000697BCF38F819885019698878F838F8176
:101920009885181619063CF71C821B828B819C81B6
:1019300084369105CCF41A82198289819A8106979E
:101940004CF489819A8101969A83898389819A814D
:101950000697BCF38B819C8101969C838B838B8142
:101960009C81843691053CF3C058DF4F0FB6F89444
:10197000DEBF0FBECDBFDF91CF910895CF93C82FAB
:101980000E94F70090933605809335058C2F877061
:1019900021E030E002C0220F331F8A95E2F7209346
:1019A00034058C2F0E940801FC0130812091340500
:1019B000232B208381E090E00E94E300FC01108251
:1019C00023B7277049F412BE29E121BF23B7207F36
:1019D0002C6023BF21E0208390933A058093390542
:1019E0001092380510923705E0913505F0913605D3
:1019F000908180913405892B8083E0913905F091A5
:101A00003A058081823099F018F4813031F02EC08F
:101A10008330B9F08430F9F029C081E794E09093E5
:101A200032078093310787B7826087BF1FC081E785
:101A300094E09093300780932F0787B7806187BF2A
:101A400015C081E794E090932E0780932D0787B708
:101A5000806887BF0BC081E794E090932C07809348
:101A60002B07EDE7F0E0808180618083CF910895BE
:101A70005F926F927F928F929F92AF92BF92CF921E
:101A8000DF92EF92FF920F931F93CF93DF93EC01BE
:101A900044E050E06CE971E00E942034892B09F0A9
:101AA00095C124968E01D990ED2CF12CC7010E948E
:101AB000F133892BB9F7E801C7010E94EA33892B7A
:101AC00009F45EC00F2EF3E1CF2EF1E0DF2EF02DF2
:101AD0000F2EF7E0AF2EF1E0BF2EF02DE12CF12C10
:101AE00000E010E0D6016D917D916D0143E050E082
:101AF000CE010E940834892B59F0F50181915F01D4
:101B0000E80EF11C0F5F1F4F0C30110559F744C14F
:101B10000C30110509F440C18B818D3209F03CC1B4
:101B20008C81282F30E0205331092A30310508F00C
:101B300033C14D81242F30E0205331092A30310543
:101B400008F02AC190E0C097DC01AA0FBB1F880FE4
:101B5000991F880F991F880F991FA80FB91FAE0DE5
:101B6000BF1DA40FB11DD19720E831E541E050E041
:101B70000E941E316B017C018E01095F1F4F2BC03B
:101B8000FBE2DF120BC0C0902E05D0902F05E09035
:101B90003005F09031050F5F1F4F1DC02DE2D212AE
:101BA00017C0C0902E05D0902F05E0903005F09022
:101BB0003105C701B60120E831E541E050E00E945F
:101BC000FC30C61AD70AE80AF90A0F5F1F4F03C094
:101BD000C12CD12C7601D8012C91822F90E0C09796
:101BE0000A9708F0D9C011964C911197842F90E074
:101BF000C0970A9708F09CC012968C9112978A336E
:101C000009F096C01396CC9113978C2F90E0C09753
:101C10000A9708F0C1C01496EC9114978E2F90E0AB
:101C2000C0970A9708F0B8C015968C9115978A331B
:101C300009F0B2C01696FC9116978F2F90E0C097CE
:101C40000A9708F0A9C01796DC918D2F90E0C097F5
:101C50000A9708F0A1C0A22FB0E0D09720EA3CE894
:101C60000E941831DC01CB018C0D9D1DAE1DBF1DE6
:101C7000642F70E06053710920E13EE0629FA00193
:101C8000639F500D729F500D1124662757FD60957C
:101C9000762F840F951FA61FB71F6C2F70E060531F
:101CA000710928E532E0629FA001639F500D729F89
:101CB000500D1124662757FD6095762F840F951FD0
:101CC000A61FB71F2E2F30E0205331096CE3629F0F
:101CD000A001639F500D1124662757FD6095762F54
:101CE000840F951FA61FB71F2F2F30E020533109F7
:101CF000A901440F551F220F331F220F331F220F3C
:101D0000331F420F531F662757FD6095762F840FB0
:101D1000951FA61FB71F4D2F50E04053510966274E
:101D200057FD6095762F840F951FA61FB71F2AC0F9
:101D3000F801319680E090E0DC01880F991FAA1F1E
:101D4000BB1FAC01BD01440F551F661F771F440F19
:101D5000551F661F771F840F951FA61FB71F820F81
:101D6000911DA11DB11DC097A109B1092191422F5B
:101D700050E0405351094A305105F8F28C0D9D1D39
:101D8000AE1DBF1DBB2344F080932E0590932F05FD
:101D9000A0933005B0933105809131058F938091E8
:101DA00030058F9380912F058F9380912E058F930F
:101DB00081EA91E09F938F930E9480340F900F905F
:101DC0000F900F900F900F9081E0AAC342E050E077
:101DD0006BEA71E0CE010E942034892B09F063C3C5
:101DE00022968E01D990ED2CF12CC7010E94F1337F
:101DF000892BB9F7E801C7010E94EA33892B09F45E
:101E00005EC00F2EF3E1CF2EF1E0DF2EF02D0F2E6E
:101E1000F7E0AF2EF1E0BF2EF02DE12CF12C00E029
:101E200010E0F601619171916F0143E050E0CE0145
:101E30000E940834892B59F0D5018D915D01E80E7F
:101E4000F11C0F5F1F4F0C30110559F726C30C30E2
:101E5000110509F422C38B818D3209F01EC38C81D8
:101E6000282F30E0205331092A30310508F015C3FE
:101E70004D81242F30E0205331092A30310508F0FC
:101E80000CC390E0C097DC01AA0FBB1F880F991FFD
:101E9000880F991F880F991FA80FB91FAE0DBF1D7E
:101EA000A40FB11DD19720E831E541E050E00E9438
:101EB0001E316B017C018E01095F1F4F2BC0BBE2FD
:101EC000DB120BC0C0902E05D0902F05E09030059E
:101ED000F09031050F5F1F4F1DC0EDE2DE1217C0FD
:101EE000C0902E05D0902F05E0903005F090310580
:101EF000C701B60120E831E541E050E00E94FC3026
:101F0000C61AD70AE80AF90A0F5F1F4F03C0C12C8F
:101F1000D12C7601D801DC918D2F90E0C0970A97E3
:101F200008F0BBC211964C911197842F90E0C09796
:101F30000A9708F09BC012968C9112978A3309F089
:101F400095C01396BC9013978B2D90E0C0970A977D
:101F500008F0A3C21496CC9114978C2F90E0C097F0
:101F60000A9708F09AC215968C9115978A3309F052
:101F700094C21696FC9116978F2F90E0C0970A97FF
:101F800008F08BC21796EC918E2F90E0C0970A97BD
:101F900008F083C2AD2FB0E0D09720EA3CE80E9461
:101FA0001831C60ED71EE81EF91E242F30E020532C
:101FB000310980E19EE0289FA001299F500D389FA4
:101FC000500D1124662757FD6095762FC40ED51E3F
:101FD000E61EF71E2B2D30E02053310988E592E0F4
:101FE000289FA001299F500D389F500D112466276E
:101FF00057FD6095762FC40ED51EE61EF71ED0E065
:10200000E0978CE38C9FA0018D9F500D11246627D3
:1020100057FD6095762FC40ED51EE61EF71E2F2F96
:1020200030E020533109A901440F551F220F331FFF
:10203000220F331F220F331F420F531F662757FDF6
:102040006095762FC40ED51EE61EF71E4E2F50E06B
:1020500040535109662757FD6095762F9801285FF8
:102060003F4FC40ED51EE61EF71E2BC0F801319659
:1020700080E090E0DC019F01880F991FAA1FBB1F21
:10208000AC01BD01440F551F661F771F440F551F3C
:10209000661F771F840F951FA61FB71F8D0F911DF9
:1020A000A11DB11DC097A109B109D1914D2F50E0DB
:1020B000405351094A305105F0F2C80ED91EEA1EAC
:1020C000FB1EFF200CF4E9C18091080490910904E3
:1020D000A0910A04B0910B04892B8A2B8B2BA9F0B9
:1020E000E2E4F4E05524539480819181A281B3818C
:1020F000892B8A2B8B2B31F05394FA96B5E05B1227
:10210000F3CFCBC1552014F4C8C1512C8901E8018B
:102110000F5F1F4F888190E00E94F133892BB9F740
:102120003E01E52DFAE3EF0280011124085F1B4F09
:10213000D801CD92DD92ED92FC921397F8808F2D0D
:1021400090E00E94EA33892B09F463C00F2EF3E17B
:10215000CF2EF1E0DF2EF02D0F2EF7E0AF2EF1E0C5
:10216000BF2EF02DE12CF12C812C912CF6016191E8
:1021700071916F0143E050E0C3010E940834892B44
:1021800069F0D5018D915D01E80EF11CBFEF8B1A4E
:102190009B0AECE08E16910449F747C1FCE08F16CC
:1021A000910409F442C1D30113968C9113978D3297
:1021B00009F03BC114963C911497832F90E0C0978F
:1021C0000A9708F032C115962C91822F90E0C097A3
:1021D0000A9708F02AC1832F90E0C097DC01AA0F6C
:1021E000BB1F880F991F880F991F880F991FA80F71
:1021F000B91FAE0DBF1DA20FB11DD19720E831E56B
:1022000041E050E00E941E316B017C01F3013796E2
:102210002CC0BBE2FB120BC0C0902E05D0902F0546
:10222000E0903005F0903105FE0131961EC0EDE2E0
:10223000FE1217C0C0902E05D0902F05E0903005FB
:10224000F0903105C701B60120E831E541E050E0EA
:102250000E94FC30C61AD70AE80AF90AFE01319634
:1022600004C0FE01C12CD12C76016081862F90E044
:10227000C0970A9708F0D9C04181842F90E0C09799
:102280000A9708F095C082818A3309F091C0B38023
:102290008B2D90E0C0970A9708F0C7C05481852F16
:1022A00090E0C0970A9708F0C0C085818A3309F092
:1022B000BCC0A6802A2D30E0205331092A303105D8
:1022C00008F0B3C09780292D30E0205331092A301F
:1022D000310508F0AAC0A62FB0E0D09720EA3CE86C
:1022E0000E941831C60ED71EE81EF91EC42FD0E07A
:1022F000E097A0E1BEE0CA9F9001CB9F300DDA9F2E
:10230000300D1124C901AA2797FDA095BA2F8C0D75
:102310009D1DAE1DBF1D6B2D70E06053710928E53A
:1023200032E0629F6001639FD00C729FD00C112439
:10233000EE24D7FCE094FE2C8C0D9D1DAE1DBF1D20
:10234000252F30E0205331096CE3629FA001639F89
:10235000500D1124662757FD6095762F840F951F29
:10236000A61FB71FB12C20E3A21AB108A501440F84
:10237000551FAA0CBB1CAA0CBB1CAA0CBB1C4A0DEB
:102380005B1D662757FD6095762F840F951FA61F4E
:10239000B71F492D50E040535109662757FD6095FE
:1023A000762FEF012896840F951FA61FB71F2AC00E
:1023B000319680E090E0DC01EF01880F991FAA1FA1
:1023C000BB1F4C015D01880C991CAA1CBB1C880C0E
:1023D000991CAA1CBB1C880D991DAA1DBB1D860F2C
:1023E000911DA11DB11DC097A109B1096191262FB1
:1023F00030E0205331092A303105F0F28C0D9D1D5B
:10240000AE1DBF1DBB238CF0F80184839583A6838A
:10241000B7837E01E701FFEFEF1AFF0A888190E0A2
:102420000E94F133892BB1F707C0D80114961D9291
:102430001D921D921C9217977801B8E0EB0EF11CCB
:10244000BE01C7010E940134FF92EF92F80187811B
:102450008F9386818F9385818F9384818F938381DE
:102460008F9382818F9381818F9380818F93852D2C
:10247000992787FD90959F935F928EEA91E09F93B5
:102480008F930E9480348DB79EB70E960FB6F89446
:102490009EBF0FBE8DBF81E043C087EC91E00E94DC
:1024A000913481E03DC046E050E061ED71E0CE0145
:1024B0000E942034892B99F526968E012196D80109
:1024C0008C9190E00E94F133892BB9F7C8010E94EA
:1024D000CB338530F0F4282F332727FD3095BAE32E
:1024E0008B02F0011124E85FFB4F108211821282EF
:1024F0001382882374F03F938F9388ED91E09F932C
:102500008F930E9480340F900F900F900F9081E076
:1025100007C083EE91E00E94913481E001C080E029
:10252000DF91CF911F910F91FF90EF90DF90CF90AF
:10253000BF90AF909F908F907F906F905F90089525
:102540002F923F924F925F926F927F928F929F92C3
:10255000AF92BF92CF92DF92EF92FF920F931F93B1
:10256000CF93DF93CDB7DEB760970FB6F894DEBF99
:102570000FBECDBF3C01C0904A07D0904B079C01D5
:10258000AA24A394F601E45DFE4F760143EDE41A1C
:102590004EEFF40A04E610E06894882481F82AC01B
:1025A000992493949A0C8081D7014C9190E00196E4
:1025B000B8010E94E93050E084179507D1F080817E
:1025C00090E0AC01440F551F840F951FD601A80F52
:1025D000B91FAC9211968C9211971296BC924FB77C
:1025E000F894808190E00196B8010E94E9308083E0
:1025F0004FBFA92CD901BD909D01B110D1CFE09062
:102600004807F090490743E050E06BEF71E0C301E9
:102610000E942034892B09F099C7B3E06B0E711C1E
:102620008301EFEF6E1A7E0AD801CC90D12CC6013F
:102630000E94F133892BA1F743E050E06FEF71E086
:10264000C8010E942034892B09F0D3C1D7011C9600
:10265000ED91FC911D9790811E968C911E97892B70
:1026600080831A96ED91FC911B9790811E968C9118
:102670008095892380831E861D868D859E85833463
:102680009105CCF41C861B868B859C8506974CF4A3
:102690008B859C8501969C878B878B859C8506976F
:1026A000BCF38D859E8501969E878D878D859E8541
:1026B000833491053CF3D7011A96ED91FC911B9759
:1026C00090811E968C911E97892B80831C96ED918C
:1026D000FC911D9790811E968C911E978095892361
:1026E00080831896ED91FC9119971E96DC9080E2FC
:1026F00093E004C00197009709F474C020812D2154
:10270000C9F780E991E004C00197009709F46FC010
:1027100020812D21C9F380E991E004C00197009741
:1027200009F46AC020812D21C9F7912CA0E8A12CC1
:1027300040E050E080E991E020E931E00F2EF8E23E
:10274000BF2EF02D60E00F2EFFE87F2EF02D8824A5
:102750008394512C6894662467F800E911E0C080E6
:10276000CD2031F5662321F1B2E2BB1560F482176A
:10277000930708F49C01A801421B530B56954795FB
:102780005695479507C0B901641B750B6817790703
:1027900008F0AA2AA69541F4D701A90DB11D1F96EC
:1027A000AC929394A52CA62DBA94872D982D03C096
:1027B0000197009731F1BB2011F06C2DD0CFD701DC
:1027C0001C96ED91FC911D978081D82AD0821A9693
:1027D000ED91FC911B9790811E968C91892B8083A3
:1027E000C12C13C00F2EFDEFCF2EF02D0EC00F2EDB
:1027F000FCEFCF2EF02D09C00F2EFBEFCF2EF02DCA
:1028000004C00F2EFEEFCF2EF02DF70107850370C9
:102810000787A1881A2D1378118BD0886D2D70E051
:10282000702B80E090E00E94D02F2DEC3CEC4CEC23
:102830005DE30E946230D7016D937D938D939C93ED
:1028400013975296BC908A2D83706B2D70E0782B75
:1028500080E090E00E94D02F2DEC3CEC4CEC5DE34E
:102860000E946230112334F0F701648375838683FC
:10287000978308C0DC01CB01B058F70184839583AE
:10288000A683B783DB0C0D0D100FD70153968C91E7
:102890001813A0C08C2D992787FD9095009709F0FB
:1028A0009BC00F2EF1E4CF2EF5E0DF2EF02D0BE3D1
:1028B00015E00F2EF2E39F2EF02DF8018081882382
:1028C00009F450C0813041F4D70114966D917D9187
:1028D0008D919C91179708C0823009F043C0F70191
:1028E00060817181828193817C2C8D2CF6013597DA
:1028F000208121110EC09B01AC01D80112966D916F
:102900007D918D919C9115970E945E30181664F010
:1029100029C0213039F5F801228133814481558164
:102920000E945E301816F4F42091AC0630E0590194
:10293000FFEFAF1ABF0A43E0A42240E8B42280911F
:10294000AB0690E0A816B906B9F0929EC001939E1E
:10295000900D1124672D782D8D519A4F0E940134CE
:10296000A092AC06085C1F4F58E3C50ED11C65E071
:10297000033E160708F4A1CFD70114966D917D91FF
:102980008D919C911797FE0131966F018F0121E087
:1029900045E00E947331DF92CF9283E092E09F93F3
:1029A0008F930E948034D7016D917D918D919C9180
:1029B00021E045E00E947331DF92CF9282EC91E0FA
:1029C0009F938F930E9480340FB6F894DEBF0FBEA2
:1029D000CDBFF2C58FEF9FEF9F938F938AE092E078
:1029E0009F938F930E9480340F900F900F900F90C1
:1029F000E3C544E050E068E172E0C8010E94203481
:102A0000892B81F50C5F1F4F78010F5F1F4FD70196
:102A10008C9190E00E94F133892BB1F7C7010E949D
:102A2000CB33833068F4282F332727FD3095B8E364
:102A30008B02F0011124E55CFA4F108233232CF451
:102A40008DE192E00E949134B7C53F938F938DE260
:102A500092E09F938F930E9480340F900F900F907D
:102A60000F90AAC5C6010E94F9338437910539F049
:102A70008836910509F0A0C5E2E0EF8702C0F1E0D9
:102A8000FF870F5F1F4FD02EE12ED801FD908D01E3
:102A90008F2D90E00E94F133892BA9F7BCE3FB1640
:102AA00031F0EEE3FE1207C13324339401C0312C20
:102AB0000D2D1E2D7801D801DD908D018D2D90E01A
:102AC0000E94F133892BB1F7BDE2DB1204C078011B
:102AD000FFEFF88B0BC02BE2D21206C03FEFE31AD8
:102AE000F30A41E0488B02C051E0588B8701D701BF
:102AF000BD907D01CB2CD12CC6010E94F133892BD6
:102B0000A9F7C601C0978A30910508F0D4C07801B2
:102B1000BFEFEB1AFB0ABC01882777FD8095982F41
:102B20000E94D22F2B013C01F801D1808D2D90E025
:102B3000C0970A9748F50E5F1F4F780120E030E0FC
:102B400040E251E4C301B2010E9462302B013C011A
:102B50006D2D70E080E090E00E94D22F9B01AC01CF
:102B6000C301B2010E94042F20E030E040E452E4AF
:102B70000E94032F2B013C01D801DD908D018D2D8A
:102B800090E0C0970A97C8F2BEE2DB1243C0C701CB
:102B90000196F7012180222D30E0205331092A309F
:102BA0003105B8F587010E5F1F4F0F2E812C912C38
:102BB000F0E8AF2EFFE3BF2EF02D20E030E040E242
:102BC00051E4C501B4010E94682F4B015C017801FA
:102BD000622D70E060537109882777FD8095982FEA
:102BE0000E94D22F9B01AC01C501B4010E9462304A
:102BF0009B01AC01C301B2010E94042F2B013C01D7
:102C0000D8012D908D01822D90E0C0970A97A8F2EF
:102C100001C07C018701BFEFEB1AFB0AF80180813C
:102C200090E00E94F133892BA9F780913B0588231E
:102C300051F080917305882309F4B6C48091AB05E7
:102C4000811139C0B3C4E12CF12C88E38E9D500171
:102C50008F9DB00C11249501255C3A4F6901EF85D9
:102C6000D901EC9311963C92F8896F2F772767FD75
:102C70007095872F972F0E94D22FA30192010E9457
:102C80006230D60112966D937D938D939C93159728
:102C9000B801C5018F5B9A4F0E940134FF92EF92F9
:102CA0008AE392E09F938F930E9480340F900F905D
:102CB0000F900F9081C48AE492E00E9491347CC40A
:102CC000B5E06B0E711C8301EFEF6E1A7E0AD8011E
:102CD0008C9190E00E94F133892BA9F743E050E0FA
:102CE0006FEF71E0C8010E942034892B69F1C8019F
:102CF0000E94CB3399236CF425E030E0F901E81B06
:102D0000F90BCF016AE070E00E94E9304FEF5FEF0E
:102D100007C005966AE070E00E94E93041E050E0AB
:102D2000862F972F8A30910514F089E090E0849FD8
:102D30009001859F300D949F300D1124C9010E968E
:102D400090933F0180933E0120913E0130913F01DD
:102D50002E503109C901880F991F220F331F220FEE
:102D6000331F220F331F820F931F9F938F938CE586
:102D700092E09F938F930E9480340F900F900F905A
:102D80000F901AC4F3E06F0E711C83012FEF621ACB
:102D9000720AD8018C9190E00E94F133892BA9F737
:102DA00042E050E066E672E0C8010E942034892BC0
:102DB00051F4E0910604F09107049081809105049C
:102DC000892B8083F9C343E050E069E672E0C801D3
:102DD0000E942034892B09F0EFC3E0910604F091A2
:102DE0000704808190910504909589238083E4C332
:102DF000B6E06B0E711C8301EFEF6E1A7E0AD801EC
:102E00008C9190E00E94F133892BA9F742E050E0C9
:102E100066E672E0C8010E942034892B51F4E091EB
:102E20000304F0910404908180910204892B808333
:102E3000C3C343E050E069E672E0C8010E94203459
:102E4000892B09F0B9C3E0910304F0910404808157
:102E500090910204909589238083AEC343E050E0B3
:102E60006DE672E0C3010E942034892B09F092C301
:102E7000B3E06B0E711C8301EFEF6E1A7E0AD8016E
:102E80008C9190E00E94F133892BA9F7C8010E9430
:102E9000CB338530910514F084E090E0992314F44D
:102EA00080E090E020913B0730913C07232B09F014
:102EB0007BC0181619060CF0D3C0E0914007F091C2
:102EC00041072081213059F0223091F018F421304F
:102ED00041F030C02330B9F02430D9F02BC024E0C9
:102EE00001C023E012BE3AEF31BF286023BF22C0E9
:102EF0001FBC1EBC1DBC1CBC2AEF30E03BBD2ABD64
:102F00002BE02EBD17C014BC2AEF23BD2BE025BD3E
:102F100011C010928B00EAE8F0E010821092890054
:102F2000109288002AEF30E03093870020938600CB
:102F30002BE02083E0914007F0914107208122306F
:102F400099F018F4213031F08BC02330B9F02430DF
:102F5000F9F086C02FE635E0309332072093310731
:102F600027B7226027BF7CC02FE635E030933007BB
:102F700020932F0727B7206127BF72C02FE635E0C7
:102F800030932E0720932D0727B7206827BF68C0EE
:102F90002FE635E030932C0720932B07EDE7F0E088
:102FA0002081206120835CC0009709F059C0E09126
:102FB0004007F09141072081223079F018F4213048
:102FC00031F02DC02330A1F02430C1F028C012BE52
:102FD0002AEF21BF28E023BF22C01FBC1EBC1DBC9E
:102FE0001CBC2AEF30E03BBD2ABD28E02EBD17C037
:102FF00014BC2AEF23BD28E025BD11C010928B0020
:10300000EAE8F0E0108210928900109288002AEF1E
:1030100030E0309387002093860028E02083E09101
:103020004007F09141072081223069F018F42130E7
:1030300031F016C0233059F0243069F011C027B7A1
:103040002D7F27BF0DC027B72F7E27BF09C027B709
:103050002F7727BF05C0EDE7F0E020812F7E20838A
:1030600090933C0780933B0790933F0780933E07E4
:1030700010923D07A1C2F89440E150E060E070E09A
:10308000C3010E94BA32E0913307F09134072081E6
:10309000223069F018F4213031F016C0233059F095
:1030A000243069F011C027B72D7F27BF0DC027B787
:1030B0002F7E27BF09C027B72F7727BF05C0EDE7B1
:1030C000F0E020812F7E2083E0913307F0913407D8
:1030D0002081223019F4BD9AC59804C0243011F41F
:1030E000139A1B98E0913307F09134072081223026
:1030F00019F0243071F01FC022ED30E037BD26BD3D
:1031000026E430E03BBD2ABD22E02FBD21E12EBDEB
:1031100012C022ED30E0309381002093800026E43D
:1031200030E0309387002093860022E020938B00CC
:1031300021E120938A00E0913307F0913407208148
:10314000223069F018F4213031F016C0233059F0E4
:10315000243069F011C023B7206223BF0DC02FB502
:1031600020682FBD09C025B5206225BD05C0EBE84C
:10317000F0E0208120682083EAE1FEE43197F1F756
:10318000E0913307F09134072081223069F018F480
:10319000213031F016C0233059F0243069F011C0CD
:1031A00023B72F7D23BF0DC02FB52F772FBD09C0AB
:1031B00025B52F7D25BD05C0EBE8F0E020812F77F8
:1031C0002083EAE1FEE43197F1F740E250E02AEB98
:1031D00038E0EBE8F0E00AEF18E199230CF045C085
:1031E000A0913307B0913407AC91A23069F018F484
:1031F000A13031F014C0A33059F0A43069F00FC0F1
:10320000A3B7A062A3BF0BC0AFB5A068AFBD07C096
:10321000A5B5A062A5BD03C0A081A068A083D90107
:103220001197F1F7A0913307B0913407AC91A23018
:1032300069F018F4A13031F014C0A33059F0A43073
:1032400069F00FC0A3B7AF7DA3BF0BC0AFB5AF7719
:10325000AFBD07C0A5B5AF7DA5BD03C0A081AF7749
:10326000A083D8011197F1F744C0A0913307B09122
:103270003407AC91A23069F018F4A13031F014C0D9
:10328000A33059F0A43069F00FC0A3B7A062A3BF68
:103290000BC0AFB5A068AFBD07C0A5B5A062A5BD06
:1032A00003C0A081A068A083D9011197F1F7A09174
:1032B0003307B0913407AC91A23069F018F4A13013
:1032C00031F014C0A33059F0A43069F00FC0A3B797
:1032D000AF7DA3BF0BC0AFB5AF77AFBD07C0A5B57E
:1032E000AF7DA5BD03C0A081AF77A083D9011197A1
:1032F000F1F7660F771F881F991F4150510941153B
:10330000510509F06ACFE0913307F09134078081CD
:10331000823069F018F4813031F016C0833059F0F2
:10332000843069F011C083B7806283BF0DC08FB550
:1033300080688FBD09C085B5806285BD05C0EBE89A
:10334000F0E08081806880838AEB98E00197F1F754
:10335000E0913307F09134078081823069F018F4EE
:10336000813031F016C0833059F0843069F011C0DB
:1033700083B78F7D83BF0DC08FB58F778FBD09C099
:1033800085B58F7D85BD05C0EBE8F0E080818F7746
:103390008083E0913507F09136078081823079F0A3
:1033A00018F4813031F02DC08330A1F08430C1F0A9
:1033B00028C012BE80E281BF89E083BF22C01FBC4B
:1033C0001EBC1DBC1CBC80E293E09BBD8ABD89E095
:1033D0008EBD17C014BC80E283BD89E085BD11C0DD
:1033E00010928B00EAE8F0E01082109289001092AF
:1033F000880080E293E0909387008093860089E0C4
:103400008083E0913707F09138071082E091370709
:10341000F09138071182E0913707F0913807128256
:10342000E553FF4F11821082E0913507F091360786
:103430008081823011F4BC9801C01298E091350768
:10344000F09136078081823099F018F4813031F0A4
:103450002EC08330B9F08430F9F029C083EC94E0B9
:10346000909332078093310787B7826087BF1FC070
:1034700083EC94E09093300780932F0787B78061A7
:1034800087BF15C083EC94E090932E0780932D079F
:1034900087B7806887BF0BC083EC94E090932C07BC
:1034A00080932B07EDE7F0E0808180618083789442
:1034B00020914A0730914B070F2EF1EFEF2EF1E0EC
:1034C000FF2EF02DAA24A394F901E45DFE4F6901BB
:1034D000B3EDCB1ABEEFDB0A04E610E042E02BC0EE
:1034E000BB24B394BA0C8081D6018C9090E00196F5
:1034F000B8010E94E930682D70E086179707D1F077
:10350000808190E0BC01660F771F860F971FD9015D
:10351000A80FB91FAC9211964C93119712969C92DA
:10352000AFB6F894808190E00196B8010E94E9302E
:103530008083AFBEAB2CD7019D907D019110D0CF81
:103540003BC081E792E00E94913436C045E050E0F4
:1035500069E772E0C3010E942034892B09F4B0CBE3
:1035600043E050E062E872E0C3010E942034892BFE
:1035700009F408CC46E050E06FE772E0C3010E9416
:103580002034892B09F434CCC3010E94380D8111F9
:1035900013C064CC42E050E066E872E0C3010E94D0
:1035A0002034892B71F667CD81E001C082E0E82EDE
:1035B000FF24E7FCF09449CB60960FB6F894DEBF89
:1035C0000FBECDBFDF91CF911F910F91FF90EF9074
:1035D000DF90CF90BF90AF909F908F907F906F9033
:1035E0005F904F903F902F900895E0913507F091B4
:1035F00036078081823079F018F4813031F02DC0A7
:103600008330A1F08430C1F028C012BE80E281BFB7
:1036100089E083BF22C01FBC1EBC1DBC1CBC80E255
:1036200093E09BBD8ABD89E08EBD17C014BC80E2CB
:1036300083BD89E085BD11C010928B00EAE8F0E0FF
:103640001082109289001092880080E293E090939B
:1036500087008093860089E08083E0913707F091AE
:1036600038071082E0913707F09138071182E09116
:103670003707F09138071282E553FF4F118210820D
:10368000E0913507F09136078081823011F4BC98C3
:1036900001C01298E0913507F091360780818230A1
:1036A00099F018F4813031F008958330B9F0843006
:1036B000F9F0089583EC94E09093320780933107FA
:1036C00087B7826087BF089583EC94E090933007BA
:1036D00080932F0787B7806187BF089583EC94E0BC
:1036E00090932E0780932D0787B7806887BF089532
:1036F00083EC94E090932C0780932B07EDE7F0E0A8
:103700008081806180830895CF93DF93CDB7DEB74A
:10371000C055D1090FB6F894DEBF0FBECDBFF894E7
:1037200080E493EDACEDB0E080932E0590932F05EF
:10373000A0933005B093310581E080932D0181E0A5
:1037400090E00E94E300FC01108280918A00877063
:10375000A1F4109289001092880089E09DE3909373
:1037600087008093860010928B00AAE8B0E08C91CD
:10377000807F8D608C9384E08083F0933305E093A9
:1037800032058081823099F018F4813031F02EC0FA
:103790008330B9F08430F9F029C08BE994E090933C
:1037A00032078093310787B7826087BF1FC08BE9DC
:1037B00094E09093300780932F0787B7806187BF8D
:1037C00015C08BE994E090932E0780932D0787B75F
:1037D000806887BF0BC08BE994E090932C0780939F
:1037E0002B07EDE7F0E080818061808380912C05DC
:1037F00090912D05892B71F481E391E00E94E30003
:103800008C010E94FE0510932D0500932C0581E08C
:1038100080932A0580902D0120912C0530912D0553
:103820000F2EFEE2EF2EF1E0FF2EF02DBB24B3941D
:10383000F901E45DFE4F690143EDC41A4EEFD40A6D
:1038400004E610E02AC0992493949B0C8081D60151
:103850004C9190E00196B8010E94E93050E0841745
:103860009507D1F0808190E0AC01440F551F840F83
:10387000951FD901A80FB91FBC9211968C92119770
:103880001296AC924FB7F894808190E00196B801FF
:103890000E94E93080834FBFB92CD701AD907D01E4
:1038A000A110D1CFE8E0F4E01082118212821382DD
:1038B000FA96B5E0EA32FB07B8F380912C059091B7
:1038C0002D0590934B0780934A0781E090E00E947A
:1038D000E3008C01FC01108280911D0790911E076E
:1038E000892B81F510921F07109220071092210753
:1038F0001092220780E890E00E94933190931E0777
:1039000080931D0780E890E00E94933190931C07FC
:1039100080931B07EAE9F0E0108222E020939B00ED
:1039200086E080939D0080E180939900109298003A
:1039300086EB93E0909318078093170788E98083BC
:10394000D8012C93109316070093150765EA75E0CC
:103950008EE093E00E94363480E20E94BE0C88E143
:103960000E94F700909307048093060421E02093BF
:103970000504FC0120812E6F208389E10E94F7005D
:10398000909304048093030422E020930204DC015A
:103990002C912D6F2C9381E090E00E94E300FC01BC
:1039A000108225B5277049F414BC2AEF23BD25B534
:1039B000207F286025BD23E02083909341078093DA
:1039C0004007E1E6F0E0808181608083E2E6F0E09C
:1039D0008081816080838FE087BB81BB81E090E044
:1039E0000E94E3008C0162E00E94400210934707AE
:1039F00000934607C801F9DD81E090E00E94E300F2
:103A00008C0162E00E94AE021093450700934407C8
:103A1000789484E190E00E94E3008C0180E10E94B0
:103A2000F700D8011B969C938E931A9780E10E9411
:103A3000E600F8019187808780E10E940801D801A3
:103A40001D969C938E931C9781E01E968C93EBE3BE
:103A5000F5E01082F896B5E0E33EFB07D0F3109353
:103A60004907009348070F2EF0E84F2EF1E55F2E2F
:103A700066246394712CF02D80912B05882309F422
:103A800040C210922B0560912E0570912F058091F8
:103A9000300590913105A30192010E94FC30C901CB
:103AA00060912B0170912C012617370709F4C6C0CD
:103AB00030932C0120932B012091070130E028172F
:103AC000390774F4E8E0F1E040E050E0821B930B2A
:103AD0004F5F5F4F219130E028173907BCF302C0D8
:103AE00040E050E0FA01EE0FFF1FED5EFE4FA081B7
:103AF000B1812C91EEE2F1E0208311962C91119787
:103B0000218312962C9122832DE2238301966AE071
:103B100070E00E94E930605D6483805D858380E2AF
:103B200086831782E0902C05F0902D05E114F104B6
:103B300009F445C080910601882309F440C08090B3
:103B40002D019F01DD24D394F701E45DFE4F570161
:103B500043EDA41A4EEFB40A04E610E02AC09924FB
:103B600093949D0C8081D5014C9190E00196B80111
:103B70000E94E93050E084179507D1F0808190E0F1
:103B8000AC01440F551F840F951FD701A80FB91F13
:103B9000DC9211968C9211971296CC924FB7F894B2
:103BA000808190E00196B8010E94E93080834FBF88
:103BB000D92CD901CD909D01C110D1CF3FC08090AB
:103BC0002D012DED33E0AA24A394F701E45DFE4F0F
:103BD0006701B3EDCB1ABEEFDB0A04E610E029C0A3
:103BE000992493949A0C8081D6014C9190E001968F
:103BF000B8010E94E93050E084179507C9F0808130
:103C000090E0DC01AA0FBB1FA80FB91FAE0DBF1DAE
:103C1000AC9211968C9211971296BC924FB7F89471
:103C2000808190E00196B8010E94E93080834FBF07
:103C3000A92CD901BD909D01B110D2CF60912E0564
:103C400070912F058091300590913105A30192016B
:103C50000E94FC306B017C010EE211E020EA3CE89E
:103C600040E050E00E94FC30205DF80127830F2ED9
:103C7000F0E18F2EFEE09F2EA12CB12CF02DA5019E
:103C800094010E94FC30205DD80118962C9318975F
:103C90008AE31C968C931C9719968C93C701B601E6
:103CA000A50194010E94FC300F2EF8E58F2EF2E062
:103CB0009F2EA12CB12CF02DA50194010E94FC3067
:103CC000205DF8012287C701B601A50194010E9479
:103CD000FC300F2EFCE38F2E912CA12CB12CF02D5B
:103CE000A50194010E94FC30205DD8011B962C9305
:103CF000C701B601A50194010E94FC300F2EFAE025
:103D00008F2E912CA12CB12CF02DA50194010E9495
:103D1000FC30205DF8012587C701B601A50194019B
:103D20000E94FC30605DD8011E966C931E971F9612
:103D30001C92E0902C05F0902D05E114F10421F087
:103D400080910601811114C00F2EFDEDCF2EF3E0FE
:103D5000DF2EF02DF6019701245D3E4F5701B3EDA4
:103D6000AB1ABEEFBB0A04E610E0332433946CC0F8
:103D700080902D0125E331E06894CC24C3F8F7014D
:103D8000E45DFE4F570143EDA41A4EEFB40A04E67A
:103D900010E02AC0992493949C0C8081D5014C9109
:103DA00090E00196B8010E94E93050E08417950731
:103DB000D1F0808190E0AC01440F551F840F951F16
:103DC000D701A80FB91FCC9211968C921197129619
:103DD000DC924FB7F894808190E00196B8010E9480
:103DE000E93080834FBFC92CD901DD909D01D110EE
:103DF000D1CF0C94BA2DD9018C91D5014C9190E082
:103E00000196B8010E94E93050E084179507E1F06F
:103E1000D9018C9190E0DC01AA0FBB1FA80FB91F3C
:103E2000AE0DBF1D8C9211963C92119712969C92EA
:103E30004FB7F894D9018C9190E00196B8010E9497
:103E4000E930D9018C934FBF8E2E8C189190911030
:103E5000D2CF0C94BA2DF80180809180A280B380DB
:103E600081149104A104B10409F444C080912E0589
:103E700090912F05A0913005B091310588159905D5
:103E8000AA05BB05BCF12091AC0630E07901FFEF3B
:103E9000EF1AFF0A43E0E42240E8F4228091AB06E7
:103EA00090E0E816F90669F1D29EC001D39E900D0C
:103EB0001124B801685F7F4F8D519A4F0E940134E1
:103EC000E092AC06F80184819581A681B78118162D
:103ED00019061A061B064CF4880E991EAA1EBB1E54
:103EE00080829182A282B38205C0F8011082118281
:103EF00012821382065C1F4FF5E00A321F0708F496
:103F0000AACF20914A0730914B07F901E35DFE4F9C
:103F1000908131978081981709F493C331968081FD
:103F200090E0FC01EE0FFF1FE80FF91FE20FF31FF7
:103F30009081D901A25DBE4F8C91981306C09181EA
:103F400011968C91981709F478C281814081813053
:103F500009F066C14158D901A05DBE4F8C918F70A8
:103F60008C938093650061961FAE1EAE619761963B
:103F70008EAD9FAD6197181619064CF12F961FAEA6
:103F80001EAE2F972F968EAD9FAD2F9706977CF480
:103F90002F968EAD9FAD2F9701962F969FAF8EAF28
:103FA0002F972F968EAD9FAD2F9706978CF3619626
:103FB0008EAD9FAD6197019661969FAF8EAF619771
:103FC00061968EAD9FAD619718161906BCF6D901A2
:103FD000A05DBE4F8C918B718C93809365002D9664
:103FE0001FAE1EAE2D972D968EAD9FAD2D97181638
:103FF00019064CF12B961FAE1EAE2B972B968EAD4D
:104000009FAD2B9706977CF42B968EAD9FAD2B978B
:1040100001962B969FAF8EAF2B972B968EAD9FADB3
:104020002B9706978CF32D968EAD9FAD2D9701960D
:104030002D969FAF8EAF2D972D968EAD9FAD2D9760
:1040400018161906BCF6D901A05DBE4F8C91877178
:104050008C938093650029961FAE1EAE29972996F2
:104060008EAD9FAD2997181619064CF127961FAEF5
:104070001EAE279727968EAD9FAD279706977CF4A7
:1040800027968EAD9FAD2797019627969FAF8EAF4F
:10409000279727968EAD9FAD279706978CF3299685
:1040A0008EAD9FAD2997019629969FAF8EAF299728
:1040B00029968EAD9FAD299718161906BCF6D90121
:1040C000A05DBE4F8C9180618C9380936500259696
:1040D0001FAE1EAE259725968EAD9FAD259718165F
:1040E00019064CF123961FAE1EAE239723968EAD74
:1040F0009FAD239706977CF423968EAD9FAD2397B3
:10410000019623969FAF8EAF239723968EAD9FADDA
:10411000239706978CF325968EAD9FAD2597019634
:1041200025969FAF8EAF259725968EAD9FAD25978F
:1041300018161906BCF64BBB21961FAE1EAE219772
:1041400021968EAD9FAD219718161906FCF01EAE74
:104150001DAE8DAD9EAD06974CF48DAD9EAD019616
:104160009EAF8DAF8DAD9EAD0697BCF321968EAD03
:104170009FAD2197019621969FAF8EAF21972196F3
:104180008EAD9FAD2197181619060CF7D901A05DC9
:10419000BE4F8C918F708C93809365001CAE1BAECC
:1041A0008BAD9CAD18161906CCF01AAE19AE89ADC0
:1041B0009AAD06974CF489AD9AAD01969AAF89AF46
:1041C00089AD9AAD0697BCF38BAD9CAD01969CAFC3
:1041D0008BAF8BAD9CAD181619063CF718AE1FAA15
:1041E0008FA998AD181619060CF427C11EAA1DAA8E
:1041F0008DA99EA906974CF48DA99EA901969EAB08
:104200008DAB8DA99EA90697BCF38FA998AD019699
:1042100098AF8FAB8FA998AD181619063CF70DC152
:10422000823009F00AC14154D901A05DBE4F8C9182
:104230008F708C93809365001CAA1BAA8BA99CA9E4
:1042400018161906CCF01AAA19AA89A99AA90697CC
:104250004CF489A99AA901969AAB89AB89A99AA924
:104260000697BCF38BA99CA901969CAB8BAB8BA941
:104270009CA9181619063CF7D901A05DBE4F8C9178
:104280008B718C938093650018AA1FA68FA598A99F
:1042900018161906CCF01EA61DA68DA59EA506977C
:1042A0004CF48DA59EA501969EA78DA78DA59EA5D4
:1042B0000697BCF38FA598A9019698AB8FA78FA5F9
:1042C00098A9181619063CF7D901A05DBE4F8C912C
:1042D00087718C93809365001CA61BA68BA59CA55B
:1042E00018161906CCF01AA619A689A59AA506973C
:1042F0004CF489A59AA501969AA789A789A59AA59C
:104300000697BCF38BA59CA501969CA78BA78BA5B4
:104310009CA5181619063CF7D901A05DBE4F8C91DB
:1043200080618C938093650018A61FA28FA198A529
:1043300018161906CCF01EA21DA28DA19EA10697EB
:104340004CF48DA19EA101969EA38DA38DA19EA14B
:104350000697BCF38FA198A5019698A78FA38FA16C
:1043600098A5181619063CF74BBB1CA21BA28BA1E3
:104370009CA118161906CCF01AA219A289A19AA11B
:1043800006974CF489A19AA101969AA389A389A1C1
:104390009AA10697BCF38BA19CA101969CA38BA329
:1043A0008BA19CA1181619063CF7D901A05DBE4F40
:1043B0008C918F708C938093650018A21F8E8F8DC7
:1043C00098A118161906CCF01E8E1D8E8D8D9E8D0F
:1043D00006974CF48D8D9E8D01969E8F8D8F8D8DC1
:1043E0009E8D0697BCF38F8D98A1019698A38F8F11
:1043F0008F8D98A1181619063CF71C8E1B8E8B8D7D
:104400009C8D18161906CCF01A8E198E898D9A8DEE
:1044100006974CF4898D9A8D01969A8F898F898D94
:104420009A8D0697BCF38B8D9C8D01969C8F8B8FFC
:104430008B8D9C8D181619063CF7808190E00196B3
:104440008F709078D901A25DBE4F8C9381811196B7
:104450008C934281F901E05DFE4F80818F708083F3
:1044600080936500188E1F8A8F89988D18161906FB
:10447000CCF01E8A1D8A8D899E8906974CF48D8901
:104480009E8901969E8B8D8B8D899E890697BCF3A4
:104490008F89988D0196988F8F8B8F89988D18169C
:1044A00019063CF7F901E05DFE4F8081846080834E
:1044B000809365001C8A1B8A8B899C8918161906B3
:1044C000CCF01A8A198A89899A8906974CF48989C5
:1044D0009A8901969A8B898B89899A890697BCF368
:1044E0008B899C8901969C8B8B8B8B899C89181658
:1044F00019063CF7F901E05DFE4F808187718083EA
:1045000080936500188A1F868F859889181619066A
:10451000CCF01E861D868D859E8506974CF48D8574
:104520009E8501969E878D878D859E850697BCF317
:104530008F8598890196988B8F878F859889181613
:1045400019063CF7F901E05DFE4F808180618083B0
:10455000809365001C861B868B859C851816190622
:10456000CCF01A86198689859A8506974CF4898538
:104570009A8501969A87898789859A850697BCF3DB
:104580008B859C8501969C878B878B859C851816CF
:1045900019063CF74BBB18861F828F819885181629
:1045A0001906CCF01E821D828D819E8106974CF4E7
:1045B0008D819E8101969E838D838D819E8106973C
:1045C000BCF38F819885019698878F838F8198851A
:1045D000181619063CF7F901E05DFE4F80818F70D7
:1045E0008083809365001C821B828B819C811816BE
:1045F0001906CCF01A82198289819A8106974CF4A7
:1046000089819A8101969A83898389819A81069703
:10461000BCF38B819C8101969C838B838B819C81D5
:10462000181619063CF74FB7F894F901E35DFE4FF1
:10463000808190E0019664E670E00E94E93080831A
:104640004FBF8091150790911607892B81F19091AA
:10465000270780912807981739F0E0911907F09102
:104660001A07309709F0099590911F07809120074C
:10467000981739F0E0911707F0911807309709F073
:1046800009959091290780912A07981721F05D9B41
:1046900002C00C94C22D9091210780912207981797
:1046A00031F080919B0085FF02C00C94D92D809140
:1046B000AB069091AC06891789F0282F30E042E3D1
:1046C000849FC00111248D519A4F2F5F3F4F23705B
:1046D00030782093AB06009759F40CC08091AF0658
:1046E0009091B006009731F01092B0061092AF068C
:1046F0000E94A012E0913707F09138078181833042
:1047000011F00C94F12DF0934307E093420730979A
:1047100009F4B2C98181833011F00C94E72C8581B2
:104720009681885891098D35910510F40C94F72DD8
:104730000C94492E878190858097479710F40C94AC
:10474000FC2D0C94012E87819085825491098E97BF
:1047500010F00C94492EC12CD12C760183E090E00E
:10476000DC01AA0FBB1FAE0FBF1F13962D913C910A
:104770001497295031092930310510F40C941C2E5E
:104780000C94492E02968334910551F780E290E013
:10479000DF01AD52BF4F11969C938E931497CD922B
:1047A000DD92ED92FC92139781E080836EC0878149
:1047B0009085CA97899710F00C94972EC12CD12C14
:1047C000760183E090E0DC01AA0FBB1FAE0FBF1F94
:1047D00013962D913C9114972A50310929303105B7
:1047E00010F40C94572E0C94972E02968B3391054F
:1047F00051F7880F991FDF01A80FB91F13968D91EC
:104800009C9114970A97099710F40C94852E0C9498
:10481000972E878190858097479710F40C94A32E4C
:104820000C94A82E8781908589549109C39710F024
:104830000C94E72CC12CD12C760183E090E0DC01B4
:10484000AA0FBB1FAE0FBF1F13962D913C9114975B
:10485000295031092930310510F40C94C32E0C94E1
:10486000E72C02968334910551F7880F991FDF01D9
:10487000A80FB91F13968D919C9114970A970997C9
:1048800010F40C94F12E0C94E72C8081882311F401
:104890000C94E72CA0914207B0914307FD01ED5223
:1048A000FF4F81818F9380818F93349783818F9382
:1048B00082818F9381818F9380818F938C911F92BE
:1048C0008F938AEE93E09F938F930E948034E091C0
:1048D0004207F09143070FB6F894DEBF0FBECDBF7D
:1048E00080818B3011F00C94252DE153FF4F808196
:1048F0009181A281B381873BE8E49E07E0EEAE0799
:10490000BE0709F40CC408F047C0873F28E09207AF
:1049100020EEA207B20709F44CC4E8F481309105F7
:10492000E0EEAE07BE0709F43EC538F40097A04E8E
:10493000B04E09F486C40C94252D8230910540EECA
:10494000A407B40709F400C60497A04EB04E09F4BA
:10495000CCC60C94252D8F3DF0E29F07F0EEAF07FB
:10496000BF0709F464C040F48F3E9041A04EB04EA2
:1049700009F43BC10C94252D8F3CE0E39E07E0EE4B
:10498000AE07BE0709F40FC28C3B9044A04EB04E58
:1049900009F47CC70C94252D8F3620E9920720EE70
:1049A000A207B20709F46BC108F58F39E0E69E074C
:1049B000E0EEAE07BE0709F4CEC040F48F3A904552
:1049C000A04EB04E09F4A5C10C94252D8F3840E7B8
:1049D000940740EEA407B40709F479C287379848D2
:1049E000A04EB04E09F4BDC20C94252D8F34F0EBCF
:1049F0009F07F0EEAF07BF0709F41FC240F48F35E1
:104A0000904AA04EB04E09F45CC00C94252D8F3214
:104A1000E0ED9E07E0EEAE07BE0709F436C38F3126
:104A2000904EA04EB04E09F4E6C20C94252D209174
:104A30004A0730914B070F2EFFEEEF2EF2E0FF2ECC
:104A4000F02DDD24D394F901E45DFE4F590143EDCF
:104A5000A41A4EEFB40A04E610E06894882481F8A2
:104A60002AC0992493949D0C8081D5014C9190E0AB
:104A70000196B8010E94E93050E084179507D1F003
:104A8000808190E0AC01440F551F840F951FD90120
:104A9000A80FB91FDC9211968C9211971296CC92A6
:104AA0004FB7F894808190E00196B8010E94E930F8
:104AB00080834FBFD92CD701CD907D01C110D1CFBC
:104AC000C4C720914A0730914B070F2EF9E9EF2E0A
:104AD000F3E0FF2EF02DDD24D394F901E45DFE4FC9
:104AE0005901B3EDAB1ABEEFBB0A04E610E06894BF
:104AF000882481F82AC0992493949D0C8081D50143
:104B00004C9190E00196B8010E94E93050E0841782
:104B10009507D1F0808190E0AC01440F551F840FC0
:104B2000951FD901A80FB91FDC9211968C9211978D
:104B30001296CC924FB7F894808190E00196B8011C
:104B40000E94E93080834FBFD92CD701CD907D01E1
:104B5000C110D1CF7AC720914A0730914B070F2E51
:104B6000F5E5EF2EF3E0FF2EF02DDD24D394F901CF
:104B7000E45DFE4F5901B3EDAB1ABEEFBB0A04E68C
:104B800010E06894882481F82AC0992493949D0C9D
:104B90008081D5014C9190E00196B8010E94E930E6
:104BA00050E084179507D1F0808190E0AC01440F6C
:104BB000551F840F951FD901A80FB91FDC921196BC
:104BC0008C9211971296CC924FB7F894808190E016
:104BD0000196B8010E94E93080834FBFD92CD701DC
:104BE000CD907D01C110D1CF30C720914A073091BF
:104BF0004B070F2EFEEDEF2EF2E0FF2EF02DDD2401
:104C0000D394F901E45DFE4F5901B3EDAB1ABEEF49
:104C1000BB0A04E610E06894882481F82AC099242D
:104C200093949D0C8081D5014C9190E00196B80140
:104C30000E94E93050E084179507D1F0808190E020
:104C4000AC01440F551F840F951FD901A80FB91F40
:104C5000DC9211968C9211971296CC924FB7F894E1
:104C6000808190E00196B8010E94E93080834FBFB7
:104C7000D92CD701CD907D01C110D1CFE6C62091AE
:104C80004A0730914B070F2EF8E8EF2EF3E0FF2E86
:104C9000F02DDD24D394F901E45DFE4F5901B3ED0D
:104CA000AB1ABEEFBB0A04E610E06894882481F8D2
:104CB0002AC0992493949D0C8081D5014C9190E059
:104CC0000196B8010E94E93050E084179507D1F0B1
:104CD000808190E0AC01440F551F840F951FD901CE
:104CE000A80FB91FDC9211968C9211971296CC9254
:104CF0004FB7F894808190E00196B8010E94E930A6
:104D000080834FBFD92CD701CD907D01C110D1CF69
:104D10009CC620914A0730914B070F2EF4E4EF2EEA
:104D2000F3E0FF2EF02DDD24D394F901E45DFE4F76
:104D30005901B3EDAB1ABEEFBB0A04E610E068946C
:104D4000882481F82AC0992493949D0C8081D501F0
:104D50004C9190E00196B8010E94E93050E0841730
:104D60009507D1F0808190E0AC01440F551F840F6E
:104D7000951FD901A80FB91FDC9211968C9211973B
:104D80001296CC924FB7F894808190E00196B801CA
:104D90000E94E93080834FBFD92CD701CD907D018F
:104DA000C110D1CF52C620914A0730914B070F2E28
:104DB000F0E0EF2EF3E0FF2EF02DDD24D394F90187
:104DC000E45DFE4F5901B3EDAB1ABEEFBB0A04E63A
:104DD00010E06894882481F82AC0992493949D0C4B
:104DE0008081D5014C9190E00196B8010E94E93094
:104DF00050E084179507D1F0808190E0AC01440F1A
:104E0000551F840F951FD901A80FB91FDC92119669
:104E10008C9211971296CC924FB7F894808190E0C3
:104E20000196B8010E94E93080834FBFD92CD70189
:104E3000CD907D01C110D1CF08C620914A07309195
:104E40004B070F2EFAEAEF2EF3E0FF2EF02DDD24B4
:104E5000D394F901E45DFE4F5901B3EDAB1ABEEFF7
:104E6000BB0A04E610E06894882481F82AC09924DB
:104E700093949D0C8081D5014C9190E00196B801EE
:104E80000E94E93050E084179507D1F0808190E0CE
:104E9000AC01440F551F840F951FD901A80FB91FEE
:104EA000DC9211968C9211971296CC924FB7F8948F
:104EB000808190E00196B8010E94E93080834FBF65
:104EC000D92CD701CD907D01C110D1CFBEC5209185
:104ED0004A0730914B070F2EF6E6EF2EF3E0FF2E38
:104EE000F02DDD24D394F901E45DFE4F5901B3EDBB
:104EF000AB1ABEEFBB0A04E610E06894882481F880
:104F00002AC0992493949D0C8081D5014C9190E006
:104F10000196B8010E94E93050E084179507D1F05E
:104F2000808190E0AC01440F551F840F951FD9017B
:104F3000A80FB91FDC9211968C9211971296CC9201
:104F40004FB7F894808190E00196B8010E94E93053
:104F500080834FBFD92CD701CD907D01C110D1CF17
:104F600074C520914A0730914B070F2EF7E7EF2EBB
:104F7000F3E0FF2EF02DDD24D394F901E45DFE4F24
:104F80005901B3EDAB1ABEEFBB0A04E610E068941A
:104F9000882481F82AC0992493949D0C8081D5019E
:104FA0004C9190E00196B8010E94E93050E08417DE
:104FB0009507D1F0808190E0AC01440F551F840F1C
:104FC000951FD901A80FB91FDC9211968C921197E9
:104FD0001296CC924FB7F894808190E00196B80178
:104FE0000E94E93080834FBFD92CD701CD907D013D
:104FF000C110D1CF2AC520914A0730914B070F2EFF
:10500000FCECEF2EF3E0FF2EF02DDD24D394F9011C
:10501000E45DFE4F5901B3EDAB1ABEEFBB0A04E6E7
:1050200010E06894882481F82AC0992493949D0CF8
:105030008081D5014C9190E00196B8010E94E93041
:1050400050E084179507D1F0808190E0AC01440FC7
:10505000551F840F951FD901A80FB91FDC92119617
:105060008C9211971296CC924FB7F894808190E071
:105070000196B8010E94E93080834FBFD92CD70137
:10508000CD907D01C110D1CFE0C420914A0730916D
:105090004B070F2EFBEBEF2EF3E0FF2EF02DDD2460
:1050A000D394F901E45DFE4F5901B3EDAB1ABEEFA5
:1050B000BB0A04E610E06894882481F82AC0992489
:1050C00093949D0C8081D5014C9190E00196B8019C
:1050D0000E94E93050E084179507D1F0808190E07C
:1050E000AC01440F551F840F951FD901A80FB91F9C
:1050F000DC9211968C9211971296CC924FB7F8943D
:10510000808190E00196B8010E94E93080834FBF12
:10511000D92CD701CD907D01C110D1CF96C420915B
:105120004A0730914B070F2EF3E3EF2EF3E0FF2EEB
:10513000F02DDD24D394F901E45DFE4F5901B3ED68
:10514000AB1ABEEFBB0A04E610E06894882481F82D
:105150002AC0992493949D0C8081D5014C9190E0B4
:105160000196B8010E94E93050E084179507D1F00C
:10517000808190E0AC01440F551F840F951FD90129
:10518000A80FB91FDC9211968C9211971296CC92AF
:105190004FB7F894808190E00196B8010E94E93001
:1051A00080834FBFD92CD701CD907D01C110D1CFC5
:1051B0004CC420914A0730914B070F2EFDECEF2E87
:1051C000F2E0FF2EF02DDD24D394F901E45DFE4FD3
:1051D0005901B3EDAB1ABEEFBB0A04E610E06894C8
:1051E000882481F828C0992493949D0C8081D5014E
:1051F0004C9190E00196B801ECD750E084179507E8
:10520000C9F0808190E0AC01440F551F840F951FB9
:10521000D901A80FB91FDC9211968C9211971296A2
:10522000CC924FB7F894808190E00196B801D1D725
:1052300080834FBFD92CD701CD907D01C110D3CF32
:1052400004C420914A0730914B070F2EF9E8EF2E46
:10525000F2E0FF2EF02DDD24D394F901E45DFE4F42
:105260005901B3EDAB1ABEEFBB0A04E610E0689437
:10527000882481F828C0992493949D0C8081D501BD
:105280004C9190E00196B801A4D750E0841795079F
:10529000C9F0808190E0AC01440F551F840F951F29
:1052A000D901A80FB91FDC9211968C921197129612
:1052B000CC924FB7F894808190E00196B80189D7DD
:1052C00080834FBFD92CD701CD907D01C110D3CFA2
:1052D00080913B0790913C07892B09F459C0E091DC
:1052E0004007F09141078081823079F018F48130D5
:1052F00031F02DC08330A1F08430C1F028C012BE3F
:105300008AEF81BF88E083BF22C01FBC1EBC1DBCCA
:105310001CBC8AEF90E09BBD8ABD88E08EBD17C0A3
:1053200014BC8AEF83BD88E085BD11C010928B004C
:10533000EAE8F0E0108210928900109288008AEF6B
:1053400090E0909387008093860088E08083E091CE
:105350004007F09141078081823069F018F4813074
:1053600031F016C0833059F0843069F011C087B72E
:105370008D7F87BF0DC087B78F7E87BF09C087B776
:105380008F7787BF05C0EDE7F0E080818F7E808357
:1053900010923C0710923B0710923F0710923E0775
:1053A00010923D0752C320914A0730914B070F2EB0
:1053B000FAE9EF2EF2E0FF2EF02DDD24D394F9016F
:1053C000E45DFE4F5901B3EDAB1ABEEFBB0A04E634
:1053D00010E06894882481F828C0992493949D0C47
:1053E0008081D5014C9190E00196B801F2D650E051
:1053F00084179507C9F0808190E0AC01440F551FD8
:10540000840F951FD901A80FB91FDC9211968C92B9
:1054100011971296CC924FB7F894808190E0019644
:10542000B801D7D680834FBFD92CD701CD907D014D
:10543000C110D3CF80913B0790913C07892B09F095
:1054400076C0E0914007F09141078081813059F0AA
:10545000823091F018F4813041F030C08330B9F0DF
:105460008430D9F02BC084E001C083E012BE9AEFF3
:1054700091BF886083BF22C01FBC1EBC1DBC1CBC6A
:105480008AEF90E09BBD8ABD8BE08EBD17C014BC37
:105490008AEF83BD8BE085BD11C010928B00EAE8D6
:1054A000F0E0108210928900109288008AEF90E05C
:1054B00090938700809386008BE08083E091400783
:1054C000F09141078081823099F018F4813031F0F9
:1054D0002EC08330B9F08430F9F029C08FE695E012
:1054E000909332078093310787B7826087BF1FC0D0
:1054F0008FE695E09093300780932F0787B7806100
:1055000087BF15C08FE695E090932E0780932D07F7
:1055100087B7806887BF0BC08FE695E090932C0714
:1055200080932B07EDE7F0E080818061808381E04C
:1055300090E090933C0780933B0790933F078093C4
:105540003E0710923D0781C220914A0730914B07D8
:105550000F2EFBEAEF2EF2E0FF2EF02DDD24D39488
:10556000F901E45DFE4F5901B3EDAB1ABEEFBB0A82
:1055700004E610E06894882481F828C09924939464
:105580009D0C8081D5014C9190E00196B80121D607
:1055900050E084179507C9F0808190E0AC01440F7A
:1055A000551F840F951FD901A80FB91FDC921196C2
:1055B0008C9211971296CC924FB7F894808190E01C
:1055C0000196B80106D680834FBFD92CD701CD9064
:1055D0007D01C110D3CF80913B0790913C07892B6F
:1055E00009F076C0E0914007F09141078081813059
:1055F00059F0823091F018F4813041F030C083309E
:10560000B9F08430D9F02BC084E001C083E012BE31
:105610009AEF91BF886083BF22C01FBC1EBC1DBC17
:105620001CBC8AEF90E09BBD8ABD8BE08EBD17C08D
:1056300014BC8AEF83BD8BE085BD11C010928B0036
:10564000EAE8F0E0108210928900109288008AEF58
:1056500090E090938700809386008BE08083E091B8
:105660004007F09141078081823099F018F4813031
:1056700031F02EC08330B9F08430F9F029C08FE6C4
:1056800095E0909332078093310787B7826087BF98
:105690001FC08FE695E09093300780932F0787B760
:1056A000806187BF15C08FE695E090932E078093A9
:1056B0002D0787B7806887BF0BC08FE695E0909372
:1056C0002C0780932B07EDE7F0E0808180618083D9
:1056D00082E090E090933C0780933B0790933F07D4
:1056E00080933E0710923D07B0C120914A07309148
:1056F0004B070F2EFCEBEF2EF2E0FF2EF02DDD24FA
:10570000D394F901E45DFE4F5901B3EDAB1ABEEF3E
:10571000BB0A04E610E06894882481F828C0992424
:1057200093949D0C8081D5014C9190E00196B80135
:1057300050D550E084179507C9F0808190E0AC0106
:10574000440F551F840F951FD901A80FB91FDC9274
:1057500011968C9211971296CC924FB7F894808143
:1057600090E00196B80135D580834FBFD92CD70181
:10577000CD907D01C110D3CF80913B0790913C0724
:10578000892B09F076C0E0914007F09141078081B4
:10579000813059F0823091F018F4813041F030C0FE
:1057A0008330B9F08430D9F02BC084E001C083E0AD
:1057B00012BE9AEF91BF886083BF22C01FBC1EBC7F
:1057C0001DBC1CBC8AEF90E09BBD8ABD8BE08EBDEA
:1057D00017C014BC8AEF83BD8BE085BD11C0109249
:1057E0008B00EAE8F0E010821092890010928800A5
:1057F0008AEF90E090938700809386008BE080830F
:10580000E0914007F09141078081823099F018F4CF
:10581000813031F02EC08330B9F08430F9F029C0E6
:105820008FE695E0909332078093310787B78260C7
:1058300087BF1FC08FE695E09093300780932F07B6
:1058400087B7806187BF15C08FE695E090932E07DC
:1058500080932D0787B7806887BF0BC08FE695E0E0
:1058600090932C0780932B07EDE7F0E08081806117
:10587000808384E090E090933C0780933B07909373
:105880003F0780933E0710923D07DFC080913907A4
:1058900090913A07892B09F44CC020914A07309126
:1058A0004B070F2EF1E1EF2EF3E0FF2EF02DDD245C
:1058B000D394F901E45DFE4F5901B3EDAB1ABEEF8D
:1058C000BB0A04E610E06894882481F828C0992473
:1058D00093949D0C8081D5014C9190E00196B80184
:1058E00078D450E084179507C9F0808190E0AC012E
:1058F000440F551F840F951FD901A80FB91FDC92C3
:1059000011968C9211971296CC924FB7F894808191
:1059100090E00196B8015DD480834FBFD92CD701A8
:10592000CD907D01C110D3CF10923A071092390764
:105930008CC020914A0730914B070F2EF2E2EF2ED8
:10594000F3E0FF2EF02DDD24D394F901E45DFE4F4A
:105950005901B3EDAB1ABEEFBB0A04E610E0689440
:10596000882481F828C0992493949D0C8081D501C6
:105970004C9190E00196B8012CD450E08417950723
:10598000C9F0808190E0AC01440F551F840F951F32
:10599000D901A80FB91FDC9211968C92119712961B
:1059A000CC924FB7F894808190E00196B80111D461
:1059B00080834FBFD92CD701CD907D01C110D3CFAB
:1059C00081E090E090933A07809339073EC00091C0
:1059D000420710914307F80180811F928F938AEF4D
:1059E00093E09F938F938CD7D80112968C910F9050
:1059F0000F900F900F90882309F1C12CD12C0F2EFE
:105A0000FEEFEF2EF3E0FF2EF02DF601EE0FFF1F5D
:105A1000E00FF11F838194819F938F93FF92EF9208
:105A20006FD7BFEFCB1ADB0AF801828190E00F90AD
:105A30000F900F900F90C816D9063CF387EF93E0B4
:105A40009F938F935DD70F900F90E0913507F09162
:105A500036078081823079F018F4813031F02DC022
:105A60008330A1F08430C1F028C012BE80E281BF33
:105A700089E083BF22C01FBC1EBC1DBC1CBC80E2D1
:105A800093E09BBD8ABD89E08EBD17C014BC80E247
:105A900083BD89E085BD11C010928B00EAE8F0E07B
:105AA0001082109289001092880080E293E0909317
:105AB00087008093860089E08083E0913707F0912A
:105AC00038071082E0913707F09138071182E09192
:105AD0003707F09138071282E553FF4F1182108289
